:020000040800F2
:1000000008220020B9020008C10200084F4200087F
:10001000C5020008C7020008C9020008000000006D
:10002000000000000000000000000000CB020008FB
:10003000CD02000800000000CF020008A9760008E9
:10004000D3020008D3020008D3020008D30200083C
:10005000D3020008D3020008D3020008D30200082C
:10006000D3020008D3020008D30200088D0B000859
:10007000D3020008D3020008D3020008D30200080C
:10008000D3020008000000009B050008D30200080E
:10009000D3020008D3020008D3020008D3020008EC
:1000A0004977000885770008D3020008D3020008CA
:1000B000D3020008D30200089D770008D30200088D
:1000C000D3020008D3020008D3020008D3020008BC
:1000D000D3020008D3020008558C0008458D0008A3
:1000E000D3020008D3020008D3020008D30200089C
:1000F000D3020008D3020008D30200080000000069
:1001000000000000D302000800000000D302000835
:10011000D302000800000000D3020008D302000848
:10012000D3020008D3020008D3020008D30200085B
:10013000D30200080000000000000000D302000805
:10014000D3020008D30200080000000000000000F5
:10015000000000000000000000000000000000009F
:10016000000000000000000000000000D3020008B2
:10017000D3020008000000000000000000000000A2
:1001800000000000D3020008000000000000000092
:10019000000000000000000000000000000000005F
:1001A0000000000000000000D3020008D302000895
:1001B000D3020008D3020008D302000800000000A8
:1001C00000000000D3020008000000000000000052
:1001D000D3020008D302000800F002F800F05CF837
:1001E0000AA090E8000C82448344AAF10107DA4592
:1001F00001D100F051F8AFF2090EBAE80F0013F088
:10020000010F18BFFB1A43F0010318473C9400008C
:100210005C9400000A444FF0000C10F8013B13F00E
:10022000070408BF10F8014B1D1108BF10F8015B4F
:10023000641E05D010F8016B641E01F8016BF9D142
:1002400013F0080F1EBF10F8014BAD1C0C1B09D199
:100250006D1E58BF01F801CBFAD505E014F8016B0B
:1002600001F8016B6D1EF9D59142D6D3704700009D
:100270000023002400250026103A28BF78C1FBD8AF
:10028000520728BF30C148BF0B6070471FB508F048
:100290002DFF1FBD10B510BD00F046F91146FFF748
:1002A000F5FF08F0C9FD00F064F903B4FFF7F2FFB1
:1002B00003BC00F06BF9000009488047094800477B
:1002C000FEE7FEE7FEE7FEE7FEE7FEE7FEE7FEE706
:1002D000FEE7FEE704480549054A064B7047000063
:1002E00039770008D9010008081C002008220020E6
:1002F000081E0020081E002053EA020C00F069804E
:100300002DE9F04B4FF00006002B1FBFB3FA83F529
:1003100003FA05F424FA05F65E4012BF1643B2FA5A
:1003200082F502FA05F4C5F120051EBF22FA05FC8C
:1003300044EA0C04203556EA044C4FEA144418BF32
:10034000641C4FF000084FF00009904271EB030C61
:1003500039D3002919BFB1FA81F701FA07F6B0FACB
:1003600080F700FA07F6C7F120071EBF20FA07FC46
:1003700046EA0C062037B6FBF4FCA7EB0507103F56
:1003800007F01F0BCBF120060CFA0BFB2CFA06F63C
:1003900044BFB3460026202FA4BF5E464FF0000B9B
:1003A0005BEA060C08BF4FF0010B19EB0B09ABFB26
:1003B000027C48EB0608C01B06FB02CC0BFB03CCFF
:1003C00071EB0C01C1E70B46024641464846BDE8C9
:1003D000F08B13B54FF000004FF00001AFF3008039
:1003E000BDE81C407047032A40F2308010F0030C37
:1003F00000F0158011F8013BBCF1020F624498BF78
:1004000011F801CB00F8013B38BF11F8013BA2F114
:10041000040298BF00F801CB38BF00F8013B11F08F
:10042000030300F02580083AC0F0088051F8043B2F
:10043000083A51F804CBA0E80810F5E7121D5CBF9C
:1004400051F8043B40F8043BAFF30080D20724BFCF
:1004500011F8013B11F801CB48BF11F8012B24BF63
:1004600000F8013B00F801CB48BF00F8012B7047B2
:1004700010B5203AC0F00B80B1E81850203AA0E83F
:100480001850B1E81850A0E81850BFF4F5AF5FEA73
:10049000027C24BFB1E81850A0E8185044BF18C926
:1004A00018C0BDE810405FEA827C24BF51F8043BCD
:1004B00040F8043B08BF7047D20728BF31F8023B21
:1004C00048BF11F8012B28BF20F8023B48BF00F8B5
:1004D000012B70474FF0000200B513469446964634
:1004E000203922BFA0E80C50A0E80C50B1F1200147
:1004F000BFF4F7AF090728BFA0E80C5048BF0CC0F5
:100500005DF804EB890028BF40F8042B08BF704752
:1005100048BF20F8022B11F0804F18BF00F8012BC4
:100520007047704770477047754600F02BF8AE462D
:1005300005006946534620F00700854618B020B5EF
:10054000FFF7C8FEBDE820404FF000064FF000075F
:100550004FF000084FF0000B21F00701AC46ACE86B
:10056000C009ACE8C009ACE8C009ACE8C0098D46D8
:10057000704710B50446AFF300802046BDE8104038
:10058000FFF793BE00487047A81B002001491820C0
:10059000ABBEFEE72600020070474FF0A0414020AE
:1005A000086007F0ADBB2DE9F043C269437F017FCE
:1005B00003F03F0490F86C80C2F30219C909C2F33A
:1005C00086334FF0010CC2F34652884500D388466B
:1005D00080F86C8090F86D70A74200D3274680F8B1
:1005E0006D7090F86E609E4200D31E4680F86E607B
:1005F00090F86F50954200D3154680F86F504145F2
:1006000009D1BC4207D89E4205D1954203D190F84A
:100610007000814501D04FF0000C6046BDE8F083CA
:1006200030B4002180F86510446900F11C01436D6D
:10063000204630BC0422184770B5044690F8651077
:100640000020012521B1012920D184F8650036E080
:10065000E0691C49C2B2C0F307238A5C5A40C0F368
:1006600007438A5C5A408A5C82EA1060085C08B1E1
:10067000042021E0207F00F00F00A06605281ED096
:1006800006281CD0092802D084F8625070BDA08BC7
:100690000009A4F85C0012D0B4F85E1088420AD8B1
:1006A00094F86C1000EB4102D4E90501636D9847A2
:1006B00084F8655070BD022084F8620070BD84F833
:1006C000615070BDD092000870B5044690F82400C7
:1006D0000025032820D0A06C80F8065094F82E0046
:1006E000032602281BD094F82400022822D072B6D8
:1006F000606C78B3A0648671606CA36D82880168B9
:100700006069984794F8360002281DD094F83E009E
:10071000022819D065641FE084F82450DEE704F154
:100720002800A064A36DA28DA16A6069984784F82F
:100730002E6070BD04F12001A164A36D04226069E4
:10074000984784F8246070BD616CC1EB4400683048
:10075000606401E0FFE7A56462B670BD2DE9F04179
:1007600004460027C0690F8094F861203D46002AA6
:100770006CD084F8615094F86430012604F16C0860
:1007800023B1012B20D0022B59D134E0A16E0529D1
:1007900002D0062914D052E02046FFF704FFF8B13A
:1007A00094F86E0040012030A08194F86F00810120
:1007B000E18194F86D0040012030A4F85E0027E04C
:1007C000C0F30F3200212CE0A16E052902D00629CA
:1007D00007D034E02046FFF7E6FE08B984F86450FD
:1007E00018E0C0F30F320121204600F01BF902206F
:1007F00084F8640023E0A06E052804D006280ED0FB
:10080000092812D01BE02046FFF7CDFE0028E5D0D6
:1008100084F864604146204600F0B8F80FE0627F3B
:100820000121204600F0FEF809E094F86000401C29
:1008300084F860002674B4F85C000880A769636DD2
:10084000042204F11C01606998470AE094F86210E0
:1008500039B1204600F0B3F884F86250216D606928
:1008600088473846BDE8F0812DE9F0411668154605
:1008700026F070422E4F02F0FF0CC2F3072E17F83D
:100880000CC000248CEA0E0CC2F3074E17F80CC003
:100890008CEA0E0C17F80C7087EA1267254AD25DB5
:1008A00046EA02722A6072B6826C3AB162B60222DD
:1008B00009291ED00A2928D079B336E00322092954
:1008C0000ED00A2910D080F8242000F12001816484
:1008D00062B61A464669876D29463046B84724E015
:1008E000016C8A71016CF2E780F82E2000F128017A
:1008F000EDE7016C0E68AE4200D00324456C05B9EB
:1009000041648A71006C83800FE090F82E100129F9
:1009100007D180F82E20838507E0FFE790F82410A8
:1009200009B1032401E080F824202046BDE8F081CD
:10093000D0920008D093000810B501231C460A2A63
:1009400009D090F83620012A0FD990F83E20012ACC
:1009500012D9002318E090F82E20012AF9D8826AD3
:10096000121D0A6080F82E400EE080F8364000F13B
:1009700030020264006B05E080F83E4000F138026E
:100980000264806B001D0860184610BD30B40B79FE
:10099000052404EB03130C7800F1200243EAC4138E
:1009A0004C7843EA04238C78C97843EA843343EAD9
:1009B00041510162042330BC0021FFF755BF0B02F7
:1009C00043EA014141F00F010423016200F12002DA
:1009D0000021FFF749BF30B41C4690F86430022B69
:1009E00002D0022030BC70470D1F44EA02132B6076
:1009F00090F86C30012B06D1CA238B54FE2311448E
:100A0000921C4B7092B20A2C03D1017C41B100219F
:100A10000174121D93B22A46214630BCFFF724BF51
:100A20000120DFE7F0B490F86030062606EB0116EF
:100A300003F0010346EA411190F8635041EA831143
:100A400041EAC311144605F00F0541EA052141EAC8
:100A500004310162F0BC042300F120020021FFF701
:100A600003BF10B504464069E16C8847002084F854
:100A7000640084F8650084F8600004F11C01636D73
:100A80006069BDE8104004221847002120B1C21F50
:100A9000082A01D3102800D901210846704710B553
:100AA00000F0BAFA08B1002010BD012010BD2DE9F8
:100AB000F041044600880D460FB217FB07F30E14F1
:100AC00016FB06F264884043134404FB04F183429E
:100AD00016DD8A4207DC801A03F0E8FE002F00DAF8
:100AE0004042344608E0002E00DA6442401A03F027
:100AF000DDFE002F00DA404260F30F0564F31F456E
:100B00002846BDE8F081F0B505460020002919D03F
:100B1000481EC31700EB5370012303EBE00080B2C3
:100B200000230DE0002404EBC3068E4204DAAE5D20
:100B3000D75CA6403E44D654641C082CF3DB5B1CF7
:100B40008342EFDBF0BD000030B5044600200029F1
:100B500010D000230CE000BF34F813502D0A1554B8
:100B6000401C80B214F813501554401C80B25B1C1A
:100B70008B42F1DB30BD0200084604D0B2F57F4F56
:100B800000D101207047002070470000054A022074
:100B9000136830EA030103D150600348FFF74CBDEE
:100BA0007047000000000240780300200D490268F1
:100BB0008A4201D20C4901E00B492031D2B2142300
:100BC000083AB2FBF3F2436C02F01F0223F0030376
:100BD0001944816404498031C16401219140016557
:100BE0007047000008040240000802400179074AEB
:100BF00002EB81024265054A4432491E826501F0DA
:100C00001F0201219140C16570470000FC080240AD
:100C100070B504468089012528B1401E0004000CEF
:100C2000A08102D00025284670BDB4F91400217EB1
:100C300090FBF1F001B2A06800F027F90120A07349
:100C4000F1E780E80E0000218173C1737047807B5B
:100C50007047C173704710B50446002240681146C2
:100C600008F095F8B4F91410606808F0CDF8042184
:100C7000206806F0BFFC00221146206806F046FC02
:100C8000E28AB4F91210206806F040FCE08A218A5A
:100C900048434FF47A71B0FBF1F0401CA08110BDC5
:100CA000016A496A826E89B251430914C388C180BE
:100CB000427812FB01F212B28280C91A836809B22B
:100CC00019448160104670472DE9F0478946016A52
:100CD00090F874600024CA6822F00102CA604A6A6F
:100CE000B0F870702346A0F870400D6805F0100C45
:100CF000D50F03D06FF00108C1F81080D1F80C8037
:100D000048F00108C1F80C80791922F00042B1F5D1
:100D1000006F02D9012580F87850B0F87250B0F811
:100D20006E70BCF1100FA2EB050508D001FB075156
:100D300090F8775000EB8505A962002108E001FBDF
:100D40001751F5E700EB8105491CAD6AC9B22C4487
:100D5000B142F7D3416A90F874506143B0F86E40E5
:100D60006C4301D091FBF4F1A9F8001084890C1BAD
:100D70004482818190F87710B0F86C4000EB8101DB
:100D8000896A614344786143B0F86E4091FBF4F4A2
:100D9000C1696143448B91FBF4F1C1814FF6FF714E
:100DA0008A4200D291B2A0F8721090F87710491CD4
:100DB00080F8771090F8771090F87420914201D362
:100DC00080F8773090F8781029B180F87530C278C3
:100DD0000021027003E0494606F038FB0146084650
:100DE000BDE8F08700210A4605E000BF00EB810363
:100DF000491CC9B29A6290F874308B42F6D801212E
:100E000080F87510704730F8701F491C0180002071
:100E1000704770B5056A0446286840F40060286091
:100E200000206862B4F86E004FF0FF31B1FBF0F0C3
:100E3000A066B4F86C00012100EB80004000606205
:100E400094F8760058340205284603F089FAA07F0A
:100E500010210205284603F083FA6FF00100286193
:100E6000E86840F00100E860286840F00100286070
:100E70000020217F0246583C04E004EB8003401C24
:100E8000C0B29A628842F8D370BD026AC1804378CA
:100E900013FB01F383804FF6FF73002903DA494205
:100EA00089B2591A00E089B2B0F86E004843B0FB2D
:100EB000F3F080B25062704772B6FEE700EB40017B
:100EC00001EB001210B5074901EB420494F824101D
:100ED000002906D1044951F8200006F0E6FAE08323
:100EE000208210BD381B00205003002010B504469E
:100EF00000EB440000EB04121248002100EB420218
:100F0000114811605160D1601161D183C2F816108F
:100F1000C2F81A10118450F8240004F025FB0B4885
:100F2000002150F8240004F01FFB094850F8240069
:100F300006F0E4FA074850F82400BDE8104004F039
:100F4000A4BC0000381B0020580300205C030020D4
:100F5000500300203C0400202DE9F84F274800688A
:100F600006F033FB834606F061FA254F8146694659
:100F7000386804F09EFB05F081FC05F07BFB0098CF
:100F800003F018FC8246494603F038FC1D4C064627
:100F900031B2B4F91000411A1B48006804F00AFB92
:100FA00060F30F05B4F91200A0EB26411748006862
:100FB00004F000FB60F31F4529461548FFF777FD55
:100FC00080464546584606F034FA4946284603F01E
:100FD00053FC05462946386804F06DFB0146C4F809
:100FE000168000982060C4F804A0E660C4F81A5087
:100FF000A4F820900846BDE8F88F000050030020B8
:101000003C040020381B0020580300205C03002013
:101010009C0200207047000070B5094DFF231A465E
:1010200005F5807606E000BF10F8014B54402A5DBC
:101030005A40335D491EC9B2F6D243EA022070BD60
:10104000489400082DE9F04347780446BFB01E4697
:10105000904689463846FFF718FD18B100203FB08A
:10106000BDE8F08320783070607802257070012F21
:1010700001D0022F1DD1B9F1000F1AD0207961796A
:1010800001EB002085B2FC216846FFF723FA6A468F
:1010900029464846FFF737FD0146B070032500207A
:1010A0006A4604E0135C73556D1CADB2401C884267
:1010B000F8DB032F01D0042F19D1B8F1000F16D09F
:1010C000207961796A4601EB002081B24046FFF742
:1010D0003BFD70556D1C0146ADB200206A4604E030
:1010E000135C73556D1CADB2401C8842F8DB042FB5
:1010F0004DD9A07870556D1CA8B2E1783154401CD0
:1011000080B221793154401C80B261793154401C45
:1011100085B20F2F02D0102F21D038E0B9F1000096
:1011200035D0024620796179A67901EB002083B29F
:10113000002111E00020671800EBC10C9C4507DA84
:1011400097F8078028FA00F808F0010802F80C80E8
:10115000401C0828F0DB491CB142EBDB17E0B8F17A
:10116000000014D001462079627902EB002082B29F
:1011700000200AE004EB4006F37921F81030367ABB
:1011800006EB032321F81030401C9042F2DB284686
:1011900065E7704770B5A0F5E0611446D23922D1F9
:1011A000114D2868407E20801048006804F056FAEF
:1011B000BCEEC00A10EE100A6080286803F08CFABA
:1011C00080B24EF66021884203D2286803F084FA88
:1011D000A080286803F066FAC0EB001080000A21A6
:1011E00090FBF1F0E08070BD04000020600300205F
:1011F000704770472DE9F84F4FF000080446CDF8CE
:1012000000800D4694F85820DFF800946169474645
:101210004046012A0AD00126FD4A84F8586041B1AF
:10122000296A012905D0A36EEBB129E00220BDE8AF
:10123000F88F6868092838D1A96A4FF4785041B10D
:101240002B6801F07C0100EA53400843E96A084337
:1012500002E0296800EA51402168CB6C1340034347
:10126000CB64606621E0C4E91971A96A286A31B1CA
:1012700001F07C01401E0843E96A084300E0401E7B
:1012800029682B79C1F3846103F01F03994001435E
:10129000A06E401EA066636E43EA0103636604D13C
:1012A0002068C16C11401943C164206802F0E2FF5C
:1012B00058B995F8250098B12068C16895F826209E
:1012C00021F4401141EA4251C160206802F0E4FF7C
:1012D0008246206802F0CEFF5AEA00000DD0FBE003
:1012E00095F8260095F82410400540EA0151206841
:1012F000C26822F440121143E6E7A86A30B1E86AF6
:1013000020B195F8250001285ED003E095F825006E
:10131000012804D02068C16821F0007103E0206832
:10132000C16841F00071C16095F83000012852D0C9
:101330002068016921F002010161AA68296820681A
:10134000B2F1004F38D002F0CBFF2068416921F0A4
:101350000041416120686969C268C2F3C10252005C
:1013600091402A69042A44D000EB82002B68026E67
:10137000DFF8A0C203F0F84302EA0C020B431A4361
:1013800042F00041016620682A69A96900EB8200E9
:10139000026E22F080720A430266297F2268286961
:1013A000012923D05FF0000102EB8000026E22F0E1
:1013B00000720A4302668FE0002202F091FF20686B
:1013C000416941F00041C4E7E06D40F02000E06574
:1013D0004FF00108A8E7D5E90D1001432068026924
:1013E00022F4FF7242F002021143A5E74FF00071B0
:1013F000DAE7002102F034FF400320684FF00001DB
:1014000072D002F02DFF90FAA0F0B0FA80F12868B7
:1014100042036ED090FAA0F0B0FA80F0814204D17D
:1014200000221146206802F072FF0121206802F0BC
:1014300017FF400320684FF001015DD002F010FF5C
:1014400090FAA0F0B0FA80F12868420359D090FADF
:10145000A0F0B0FA80F0814204D10022012120687E
:1014600002F055FF0221206802F0FAFE40032068D6
:101470004FF0020148D002F0F3FE90FAA0F0B0FA6B
:1014800080F12868420344D090FAA0F0B0FA80F0CE
:10149000814204D100220221206802F038FF03219A
:1014A000206802F0DDFE400320684FF0030133D0D6
:1014B00002F0D6FE90FAA0F0B0FA80F1286842035C
:1014C0002FD090FAA0F0B0FA80F0814204D100222F
:1014D0000321206802F01BFF2068816811F0010FD2
:1014E00022D0AFE000E004E002F0BAFEC0F3846175
:1014F0008DE7C0F3846091E702F0B2FEC0F384612F
:10150000A2E7C0F38460A6E702F0AAFEC0F38461FC
:10151000B7E7C0F38460BBE702F0A2FEC0F38461CA
:10152000CCE7C0F38460D0E7EB6829684B4550F8FE
:10153000B03FC1F3120101D10B4300E08B430360C4
:10154000E86848457ED1286841031CD090FAA0F194
:10155000B1FA81F1491C01F01F0109294FEA40311C
:1015600032D8002912D000BF90FAA0F1B1FA81F16F
:1015700001F1010101F01F0106FA01F609D100BFD6
:10158000C0F3846109E0C0F38461E3E7C0F38461E0
:10159000EEE790FAA0F1B1FA81F101F1010101F059
:1015A0001F0146EA816102D1C0F3846003E090FA32
:1015B000A0F0B0FA80F000F1010000F01F0000EB95
:1015C000400041EA005139E000290ED090FAA0F124
:1015D000B1FA81F101F1010101F01F0106FA01F6F2
:1015E00006D100BFC0F3846106E0C0F38461F1E777
:1015F00090FAA0F1B1FA81F101F1010101F01F01AE
:1016000046EA816109D1C0F384600AE000007F40AE
:101610000040100400F0FF0314E090FAA0F0B0FACC
:1016200080F000F1010000F01F002B4A00EB4000A9
:1016300002EB005041EA000141F00071AA68206805
:1016400002F04EFE25482A68024240D024488168B4
:10165000244B01F0E0719A4202D0234B9A421BD1F5
:101660000B0219D42268B2F1A04F30D1826841F444
:10167000000122F0E0720A4382601C481C490068A5
:10168000B0FBF1F0801C00EB4000800000E0401E49
:1016900000900028FBD11AE0164D174BAA4207D143
:1016A000CD0105D422689A4211D041F0807109E041
:1016B000124DAA420BD14A0209D422689A4206D09E
:1016C00041F48001826822F0E0720A43826084F86B
:1016D00058704046ABE50000000020FE0000088086
:1016E00000030050000021C31000C09078040020C7
:1016F000400D0300000052C700010050000084CBE1
:101700002DE9F047044690F858009CB00E464FF083
:101710000009012815D0012084F8580000251795EC
:10172000189520684FF0A04840450ED1284F0097EB
:10173000384602F0B1FD8246206802F0ADFD60B18E
:101740000EE002201CB0BDE8F087E06D40F0200004
:10175000E06584F858500120F4E7BAF1000F09D091
:10176000E06D40F02000E0654FF0010984F858502A
:101770004846E7E71748326840F61F71002A82683A
:1017800022F4604216D094F8383042EA433273684B
:101790001A438260D8F80820BB6802F0010203F007
:1017A00001031A43E2D1B36832681A4383688B435A
:1017B0001A430BE08260D8F80820BB6802F00102EF
:1017C00003F001031A43D1D182688A438260CDE7D6
:1017D00000010050000300502DE9F84F0027044697
:1017E000009790F85800DFF8D8930D46B8460128C6
:1017F00011D0012684F85860206802F049FD60B1DC
:10180000E06D40F02000E0655FF0010784F858804B
:101810003846BDE8F88F0220FBE7D5E900210C230C
:10182000206803EA91131844036B01F01F014FF085
:101830001F0C0CFA01FCC2F3846223EA0C038A40F9
:1018400013430363206802F023FD8246206802F000
:101850000DFD5AEA00003CD1AA6829682068B2F15F
:10186000004F37D002F02DFD2068416921F0004182
:10187000416120686969C268C2F3C10252009140A7
:101880002A69042A31D000EB82002B68026EDFF84F
:1018900034C303F0F84302EA0C020B431A4342F04C
:1018A0000041016620682A69A96900EB8200026E86
:1018B00022F080720A430266297F22682869012982
:1018C00010D0002102EB8000026E22F000720A4369
:1018D00002667DE0002202F0F4FC2068416941F0DC
:1018E0000041C5E74FF00071ECE7002102F0B2FCC7
:1018F000400320684FF0000172D002F0ABFC90FA78
:10190000A0F0B0FA80F1286842036ED090FAA0F0FF
:10191000B0FA80F0814204D100221146206802F022
:10192000EEFC0121206802F095FC400320684FF096
:1019300001015DD002F08EFC90FAA0F0B0FA80F1C7
:101940002868420359D090FAA0F0B0FA80F08142A2
:1019500004D100220121206802F0D1FC022120687C
:1019600002F078FC400320684FF0020148D002F0FA
:1019700071FC90FAA0F0B0FA80F12868420344D0DC
:1019800090FAA0F0B0FA80F0814204D10022022146
:10199000206802F0B4FC0321206802F05BFC4003E5
:1019A00020684FF0030133D002F054FC90FAA0F00D
:1019B000B0FA80F1286842032FD090FAA0F0B0FA74
:1019C00080F0814204D100220321206802F097FCBC
:1019D0002068816811F0010F22D0A8E000E004E047
:1019E00002F038FCC0F384618DE7C0F3846091E7B6
:1019F00002F030FCC0F38461A2E7C0F38460A6E784
:101A000002F028FCC0F38461B7E7C0F38460BBE751
:101A100002F020FCC0F38461CCE7C0F38460D0E71F
:101A2000EB6829684B4550F8B03FC1F3120101D172
:101A30000B4300E08B430360E868484577D1286892
:101A400041031CD090FAA0F1B1FA81F1491C01F0D8
:101A50001F0109294FEA403132D8002912D000BFB6
:101A600090FAA0F1B1FA81F101F1010101F01F0139
:101A700006FA01F609D100BFC0F3846109E0C0F3A2
:101A80008461E3E7C0F38461EEE790FAA0F1B1FA74
:101A900081F101F1010101F01F0146EA816102D1EA
:101AA000C0F3846003E090FAA0F0B0FA80F000F197
:101AB000010000F01F0000EB400041EA005132E05D
:101AC00000290ED090FAA0F1B1FA81F101F10101E3
:101AD00001F01F0106FA01F606D100BFC0F38461D0
:101AE00006E0C0F38461F1E790FAA0F1B1FA81F168
:101AF00001F1010101F01F0146EA816102D1C0F349
:101B0000846003E090FAA0F0B0FA80F000F10100E8
:101B100000F01F002C4A00EB400002EB005041EAAD
:101B2000000141F00071AA68206802F0CAFB274852
:101B30002A6802423FF46AAE25488168254B01F0CD
:101B4000E0719A4202D0244B9A421CD10B021AD463
:101B50002268B2F1A04F7FF459AE826841F40001CF
:101B600022F0E0720A4382601C481D490068B0FB05
:101B7000F1F0401C00EB4000800000E0401E0090AF
:101B80000028FBD142E6174D174BAA4207D1CD01E1
:101B900005D422689A42F5D041F0807109E0134DD6
:101BA000AA42EFD14A02EDD422689A42EAD041F427
:101BB0008001826822F0E0720A43826026E600001B
:101BC00000007F4000F0FF03000020FE00000880BE
:101BD00000030050000021C31000C09078040020D2
:101BE000400D0300000052C700010050000084CBEC
:101BF000F8B54FF0000504002E46009502D0E06DC8
:101C000010B107E00120F8BD204600F0EFF826668D
:101C100084F8586020688168C1F3407119B1816807
:101C20006A4A1140816020688168C1F3007189B9F6
:101C30008168674A114041F080518160654866497A
:101C40000068B0FBF1F04000801C00E0401E0090F6
:101C50000028FBD120688168C1F3007141B9E16DB2
:101C600041F01001E165216E41F00101216601257D
:101C700002F00EFBE16DC90600D430B1E06D40F01A
:101C80001000E06501252846F8BDE06D20F4807065
:101C900040F00200E0652068806810F0010F11D16B
:101CA0004FF0A04080684D4900F00100896801F0C4
:101CB0000101084306D14A486168826822F47C1217
:101CC0000A438260E168E06B627F0843A16841EAF1
:101CD0004231084394F8241040EA0140012904D11C
:101CE000218D404A02EB41410843E16A29B101F4E8
:101CF0007871226B014342EA01002168CA683A4BBD
:101D00001A400243CA6020680169626B21F0406199
:101D100011430161206802F0BBFA0646206802F018
:101D2000A5FA30432ED1207F94F83810800340EA82
:101D300041022068C16844F2020399431143C16023
:101D400020690028206801690AD041F480310161CE
:101D5000206850F8C01F22696FF30D01114307E09E
:101D600021F480310161206850F8C01F6FF30D012C
:101D7000016094F8400001280CD02068016921F02E
:101D800001010161606901282068016B21F00F01E8
:101D900011D013E0D4E911010843D4E9131211431F
:101DA000084321680A6940F2FC739A43104340F0EB
:101DB00001000861E6E7226A521E11430163E06DEB
:101DC00020F0020040F00100E0655CE7C0FFFF5F2B
:101DD000C0FFFF7F78040020400D03000001005089
:101DE000000300500000FEFF0740F0FF2DE9F04126
:101DF00098B00446142111A8FEF76CFB44216846F4
:101E0000FEF768FB4FF40041206800254A03344F79
:101E10000326344C4FF09048B0F1A04F10D0324B15
:101E200098425AD10F926846009100F041FE08B1E5
:101E3000FFF742F83868401C3860012835D03CE094
:101E40000F926846009100F033FE08B1FFF734F8B6
:101E50003868401C3860012807D1E06C40F400501D
:101E6000E064E06C00F400501690E06C40F001007B
:101E7000E064E06C00F001001690E06C40F00200BD
:101E8000E064E06C139500F0020016900520CDE9A7
:101E9000110611A9404600F01BFB44F20200139505
:101EA000CDE9110611A9114815E0E06C40F400508D
:101EB000E064E06C00F400501690E06C40F001002B
:101EC000E064E06C139500F0010016904020CDE92D
:101ED000110611A9404600F0FBFA18B0BDE8F081E8
:101EE0006804002000100240000100500004004877
:101EF000F8B504004FF000000546009003D02168BB
:101F00000968002901DA012575E0617F21B9207790
:101F10002062204600F07EF821680868E66800F438
:101F20000002D4E90130184363693343184323693D
:101F300018430B68314E334003430B60206801683F
:101F400009020ED56AB92E492E4A0968B1FBF2F191
:101F5000491C01EB8101890000E0491E0091002924
:101F6000FBD12949884202D14FF400110EE02649E5
:101F7000091D884202D14FF4800107E0224908314F
:101F8000884201D1810601E04FF08041A3691F48DA
:101F90009E07A0F1040228D0DE0600F104031E68AB
:101FA00001D50E4300E08E431E60237E9E06184B33
:101FB0001E6801D50E4300E08E431E60144B0833AB
:101FC0001960237E9B07036801D50B4300E08B4318
:101FD0000360207EC00702D01068084301E010684B
:101FE00088431060607F20B105E003688B43036085
:101FF000F5E7012060772846F8BD00000F7E00FF5E
:1020000078040020400D0300000201400404014058
:102010000C04014030B587B0044614216846FEF731
:1020200059FA24681D4D00221D4903234FF09040AA
:10203000AC4209D1CC6C44F00104CC64C96C01F011
:102040000101059102210CE0144D2D1DAC4211D16E
:10205000CC6C44F00104CC64C96C01F00101059121
:102060008021CDE9001302924FEA0D0100F030FA11
:1020700007B030BD09480C308442F9D1C86C40F03B
:102080000200C864C86C694600F002000590012097
:10209000CDE9000302920348E8E700000002014096
:1020A000001002400004004870B5040004D094F809
:1020B0002100002510B106E0012070BD84F82050F9
:1020C000204600F00BF865626560A560E56025615B
:1020D0000120656184F82100002070BD08B500680A
:1020E0000649884208D10648816C41F008018164A4
:1020F000806C00F00800009008BD0000000C024059
:10210000001002402DE9F0470446407990460D4604
:1021100001280BD04FF0010984F8059002202071AE
:10212000A96808F01006042903D045E00220BDE8A4
:10213000F08700F0F7FA07465FEA08004FF003085F
:1021400005D01CE000F0EEFAC01B01280FD8206873
:10215000406B0004F6D4012000F0A8F92168686AF9
:10216000086416E000F0DEFAC01B012807D92069D8
:1021700040F00800206184F804800320D7E720683D
:10218000406B0028EEDB012000F090F92168686ABE
:1021900048642068816C40F2FF32B2409143AA6AE1
:1021A000B240114381642068C16CFF22B240914368
:1021B000EA6AB2401143C164E869012808D1226883
:1021C000916B1F20B0408143286AB0400843906360
:1021D0002068C06B0721B1408843A969012903D059
:1021E000022955D06969E9B300216B69AA681A43CD
:1021F0000A434FF4807101FA06F398432B79012BBF
:1022000000D0002111434FF4007202FA06F3984304
:102210006B79012B00D0002220F44047286842EA65
:102220000108022836D00743216808FA06F038432F
:10223000C863206801684FF48042B2409143016056
:102240002268116840F6FE70B0408143E868B040F3
:102250000843106020680168C022B24091430160C9
:10226000287B00E014E0297C2268C0F3830001F0A1
:102270003C0140EA8110116E40F60F73B340994360
:10228000B0400143116684F80490002060714EE76D
:102290000121AAE700F03EFE0549884202D947F431
:1022A0000047C1E703498842BED947F48047BBE7EE
:1022B0000068890900B4C40470B5040003D0207913
:1022C000002510B105E0012070BD6571204600F0C9
:1022D00007F802202071256101202071002070BDC7
:1022E00008B500680649884208D10648C16C41F427
:1022F0008021C164C06C00F48020009008BD000003
:10230000001000500010024010B590F82530002158
:102310000122022B03D00421C163012122E00368C2
:102320001C6824F00E041C60836C1C6824F4807408
:102330001C6003681C6824F001041C6090F84430A1
:10234000046C03F01F0302FA03F36360D0E9133453
:102350005C60436D33B11C6824F480741C60D0E968
:1023600016345C6080F82520002280F8242008467E
:1023700010BD70B590F82520002401212346022AC3
:1023800007D00422C26380F8251080F8243001248D
:1023900029E00268156825F00E05156002681568C9
:1023A00025F001051560826C156825F480751560AF
:1023B00090F84420056C02F01F0201FA02F26A60F4
:1023C000D0E913255560426D32B1156825F480754A
:1023D0001560D0E91625556080F8251080F8243066
:1023E000816B01B18847204670BD000070B50400C4
:1023F0000CD02B4A21681420914209D2294A0A4460
:10240000B2FBF0F08000606427480AE0012070BD54
:10241000234A52420A44B2FBF0F080006064204834
:1024200008382064022084F825000A6847F6F07016
:102430008243D4E902031843D4E904352B431843FB
:10244000A3691843E3691843236A184310430860DB
:102450002046FEF7ABFBA0680025B0F5804F00D109
:102460006560A16C20790860D4E91301416060685F
:10247000401E032808D82046FEF7B8FB606D0560B3
:10248000D4E91601416002E06565A565E565E5638F
:10249000012084F8250084F82450002070BD00003D
:1024A00008040240F8FFFDBF0000024070B504467A
:1024B00000F038F90546601C02D004484068044426
:1024C00000F030F9401BA042FAD370BD6C0400202C
:1024D0002DE9F04FDFF82092002301260324A9F113
:1024E000040B85B00F2709F1040AABF1040EFAE0E2
:1024F00006FA03F52A407CD091F804C00CF0030CD6
:10250000BCF1010F02D0BCF1020F26D1D0F808C0F7
:10251000CDF800C04FEA430C04FA0CF8CDF810C017
:10252000DDF800C02CEA080CCDF800C0D1F80C8012
:10253000DDF810C008FA0CF8DDF800C048EA0C0815
:10254000C0F80880D0F804C02CEA050C0D79C5F35A
:1025500000159D4045EA0C0545600D79ED43AD073A
:102560000ED0C5684FEA430804FA08FC25EA0C05BA
:10257000D1F808C00CFA08FC4CEA050CC0F80CC0F5
:102580000D7905F00305022D16D1DD0800EB850C51
:10259000CDF808C0DCF820805D074FEAD56C07FA5B
:1025A0000CF528EA05080D6905FA0CF5DDF808C0F8
:1025B00045EA0805CCF8205005684FEA430CCDF8F1
:1025C00008C004FA0CFC25EA0C0591F804C00CF0D4
:1025D0000308DDF808C008FA0CF848EA0508C0F856
:1025E00000804D6815F4403F7CD0444DD5F860C064
:1025F00000E077E04CF0010CC5F860C02D6E23F0D0
:10260000030C05F0010500953D4D65440295AD684C
:102610004FEA837C4FEA1C7807FA08FC25EA0C0590
:10262000B0F1904F06D0DFF8DCC0604505D14FF027
:10263000010C20E04FF0000C1DE0DFF8CCC060453D
:1026400002D14FF0020C16E0DFF8C0C0604502D1A5
:102650004FF0030C0FE0DFF8B8C0604502D14FF037
:10266000040C08E0DFF8ACC0604502D14FF0050C67
:1026700001E04FF0060C0CFA08FC4CEA050C029D38
:10268000C5F808C0D9F80050CC46D1F8048095436D
:102690005FEAC82800D51543CCF80050DAF800509E
:1026A000D446D1F8048095435FEA882800D51543C5
:1026B000CCF80050DBF80050DC46D1F8048095439C
:1026C0005FEA883800D51543CCF80050DEF800509A
:1026D000F446D1F8048095435FEAC83800D5154325
:1026E000CCF800505B1C0A6832FA03F57FF400AFA7
:1026F00005B0BDE8F08F0000080401400010024062
:10270000000001400004004800080048000C004898
:1027100000100048001400480AB1816170478162CE
:102720007047000001488068704700006C0400207A
:102730000248816842681144816070476C0400203F
:1027400010B50024032000F077F8042000F008F80A
:1027500008B1012401E000F025F8204610BD00007A
:1027600070B50E4E05460024706898B14FF47A712A
:10277000B1FBF0F00A490968B1FBF0F000F031FE5E
:1027800040B9102D06D200222946501E00F034F820
:10279000356000E00124204670BD00006C0400207C
:1027A000780400200C4808B5016E41F00101016673
:1027B000016E01F001010091816D41F08051816550
:1027C000806D00F080500090042000F035F8BDE8E6
:1027D000084000F065B9000000100240002809DB45
:1027E00000F01F02012191404009800000F1E0202B
:1027F000C0F8001170470000F0B40E4B1B680C4687
:10280000C3F30223C3F10705042D00D90425191DC4
:10281000072901D2002300E0DB1E012606FA05F19C
:10282000491E214099409E40761E16403143F0BC1F
:1028300006F0F1BA0CED00E0064900F00702086866
:102840004FF6FF03184040EA0220034A1043086095
:10285000704700000CED00E00000FA05F8B5040038
:102860004FF0000514D094F83A00052810D094F8E1
:102870003A0002280CD03448016E41F00101016693
:10288000006E00F00100009094F83A0010B104E0EE
:102890000120F8BD002084F83900204600F058F8E7
:1028A000A0682A4A4FF48071402836D0602834D07E
:1028B00020680368E66A23F0100333430360D4E919
:1028C00001031843D4E9033633431843237D012B16
:1028D00000D000210843616A0843A16A0843218EA1
:1028E00040EAC14094F8341040EA0161206803686E
:1028F00013401943016020688169002909DBD4E98C
:1029000006121143226A836923F03F031A431143DD
:10291000816194F83A0090B114E020680368E66A97
:1029200023F0100333430360D4E901031843267DE9
:102930002369012E00D000210B431843CBE701206F
:1029400084F83A002846F8BD00100240113E00E02D
:1029500030B587B0044614216846FDF7BBFD2468F6
:102960001D4D00221D4903234FF09040AC4209D178
:10297000CC6C44F00104CC64C96C01F001010591F8
:102980000E210CE0144D2D1DAC4211D1CC6C44F045
:102990000104CC64C96C01F001010591E021CDE98D
:1029A000001302924FEA0D01FFF792FD07B030BD10
:1029B000094808308442F9D1C86C40F00200C8646C
:1029C000C86C694600F0020005900720CDE90003BD
:1029D00002920348E8E700000003014000100240B3
:1029E000000400482B492C4B0A6832214A432B49EA
:1029F00040B1B0F5007F086829D020F4C06040F4F1
:102A000080602CE00868C0F34120022804D051F80F
:102A1000800F20F4807022E0D1F8800020F48070D4
:102A2000C1F88000086820F4C06040F400700860BD
:102A3000B2FBF3F0401C00E0401E4A69520501D58C
:102A40000028F9D1486940050AD503207047C0F332
:102A50004120022806D051F8800F40F480700860B1
:102A600000207047D1F8800040F48070C1F88000E9
:102A7000086820F4C06040F400700860B2FBF3F016
:102A8000401C00E0401E4A695205DBD50028F9D100
:102A9000D8E700007804002040420F00007000409A
:102AA0000248816841F480418160704700700040B5
:102AB0002DE9F8430446006800269D4D00035ED5CD
:102AC000A86D0027C00008D4A86D40F08050A8650C
:102AD000A86D012700F080500090DFF85892D9F8D7
:102AE000001041F48071C9F80010FFF71BFE80460A
:102AF00006E000BFFFF716FEA0EB080002282BD867
:102B0000D9F80000C005F5D5D5F8900010F4407054
:102B100014D0216C814211D0D5F89000D5F89010D6
:102B200020F4407041F48031C5F89010D5F8901031
:102B300021F48031C5F89010C5F89000C00711D07D
:102B4000FFF7F0FD804641F2883907E0FFF7EAFD24
:102B5000A0EB0801494501D903260BE0D5F8900008
:102B60008007F3D5D5F89000216C20F4407008431D
:102B7000C5F890001FB1A86D20F08050A86520789E
:102B8000C00707D0D5F88800616820F0030008432B
:102B9000C5F888002078800707D5D5F88800A16897
:102BA00020F00C000843C5F888002078400707D5BE
:102BB000D5F88800E16820F030000843C5F88800A7
:102BC0002078000707D5D5F88800216920F0C000DB
:102BD0000843C5F888002078800607D5D5F8880016
:102BE000616920F440600843C5F8880020784006F9
:102BF00007D5D5F88800A16920F440500843C5F8EE
:102C000088002078000607D5D5F88800E16920F40F
:102C100040400843C5F888002088C00507D5D5F88E
:102C20008800216A20F440300843C5F888002088D5
:102C3000800507D5D5F88800616A20F44020084354
:102C4000C5F88800208840050FD5D5F88800A16A0E
:102C500020F440100843C5F88800A06AB0F5801F32
:102C600003D1E86840F48010E860208800050FD5A3
:102C7000D5F88800E16A20F440000843C5F88800D0
:102C8000E06AB0F5800F03D1E86840F48010E86096
:102C90002088C0040FD5D5F88800216B20F0407043
:102CA0000843C5F88800206BB0F1807F03D1E86845
:102CB00040F48010E86020884FF0006180040ED559
:102CC000D5F88800626B20F040601043C5F888009A
:102CD000606B884203D1E86840F48010E860208887
:102CE00040040ED5D5F88800A26B20F04060104358
:102CF000C5F88800A06B884203D1E86840F48010D2
:102D0000E860208800040FD5D5F88800E16B20F03A
:102D100040500843C5F88800E06BB0F1805F03D1F4
:102D2000E86840F48030E8603046BDE8F883000091
:102D300000100240007000402DE9F0470E460500EB
:102D40004FF0000725D0DFF8AC81D8F8000000F084
:102D50000F00B0420CD2D8F8001021F00F0131431F
:102D6000C8F80010D8F8000000F00F00B04210D1F1
:102D70002968614CC80741F2883A5AD06868DFF880
:102D80007C91032808D0022820682DD04005002817
:102D90002CDB0120BDE8F08720688001F9D5E068D0
:102DA00000F00302E068C0F30310401C032A19D0AE
:102DB000534A00BFB2FBF0F0E268C2F30622504370
:102DC000E268C2F34162521C5200B0FBF2F0484587
:102DD00017D9A06810F0F00F0CD0880711D5A8689B
:102DE00040B10EE0474AE5E78003D0E700F0BCF8C9
:102DF000484506D9A06820F0F00040F08000A060AF
:102E00008027A068696820F003000843A060FFF7EE
:102E100089FC814606E000BFFFF784FCA0EB0901B6
:102E200051453AD8A068696800F00C00B0EB810FFA
:102E3000F2D12868810714D5400703D5A06840F473
:102E4000E060A0602878000705D5A06820F46050F5
:102E500040F4E060A060A068A96820F0F00008439A
:102E600004E0802F03D1A06820F0F000A060D8F823
:102E70000010404601F00F01B14216D9016821F05F
:102E80000F0131430160FFF74DFC074607E000BF2B
:102E9000FFF748FCC11B514501D903207AE7D8F858
:102EA000000000F00F00B042F2D12878400705D5AD
:102EB000A068E96820F4E0600843A0602878000773
:102EC00006D5A068296920F4605040EAC100A060DE
:102ED00000F04AF8A1680C4AC1F30311515C01F0FB
:102EE0001F01C8400949086009480068BDE8F0476B
:102EF000FFF736BC002002400010024000B4C404BA
:102F00000024F40000127A000894000878040020DD
:102F10006C0400200148006870470000780400201D
:102F20000548064900688968054AC1F30221515CD9
:102F300001F01F01C84070477804002000100240D3
:102F4000189400080548064900688968054AC1F3D5
:102F5000C221515C01F01F01C84070477804002075
:102F60000010024018940008184910B58868C0F392
:102F700081021748012A0BD08A684310C2F38102EC
:102F8000022A06D08A68C2F38102032A03D00020F5
:102F900010BD184610BDCA6802F00304CA68C2F327
:102FA0000312521C032C02D0B0FBF2F001E0B3FB81
:102FB000F2F0CA68C968C2F306225043C1F3416106
:102FC000491C4900B0FBF1F010BD000000100240A8
:102FD0000024F4002DE9F84304007AD02078FA4D5B
:102FE000C00747D0A868E96800F00C0001F00301B1
:102FF0000C2802D0082817D001E0032914D06068FB
:10300000B0F5803F17D0B0F5A02F286817D020F476
:1030100080302860286820F4802028606068E0B153
:10302000FFF780FB064614E02868800322D560681D
:103030000028D2D01EE0286840F48030EDE740F44C
:1030400080202860F7E700BFFFF76CFB801B642837
:1030500070D828688003F7D50CE0FFF763FB0646BD
:1030600005E000BFFFF75EFB801B6428F0D82868EE
:103070008003F7D4207880074CD5A868E96800F071
:103080000C0001F003010C2802D004280DD001E04F
:1030900002290AD0E068002828682BD040F480700C
:1030A0002860FFF73FFB064619E02868400502D577
:1030B000E068002891D06868217C20F0FE4040EA5A
:1030C00001606860C1480068FFF74AFB002800D132
:1030D00020E076E1FFF726FB801B0228B8D828689D
:1030E0004005F7D56868217C20F0FE4040EA016089
:1030F00068600FE020F480702860FFF713FB06463D
:1031000005E000BFFFF70EFB801B0228A0D828684F
:103110004005F7D42078000729D560690028D5F844
:10312000940013D040F00100C5F89400FFF7FAFABC
:10313000064606E090E000BFFFF7F4FA801B022885
:1031400086D8D5F894008007F6D510E020F001006D
:10315000C5F89400FFF7E6FA064604E0FFF7E2FA46
:10316000801B022878D8D5F894008007F6D4207800
:10317000400761D5A86D0026C00008D4A86D40F0B6
:103180008050A865A86D012600F0805000909048FE
:103190000168C90511D40168804641F4807101605D
:1031A000FFF7C0FA074604E0FFF7BCFAC01B02288D
:1031B00052D8D8F80000C005F6D5A068012815D06F
:1031C0000528D5F8900016D020F00100C5F8900031
:1031D000D5F8900020F00400C5F89000A06841F2F6
:1031E0008838B8B1FFF79EFA07460EE0D5F8900090
:1031F00040F00100F0E740F00400C5F89000F5E76A
:10320000FFF790FAC11B414526D8D5F890008007FA
:10321000F6D50CE0FFF786FA074604E0FFF782FADE
:10322000C11B414518D8D5F890008007F6D41EB1CF
:10323000A86D20F08050A8652078800629D5A06967
:103240000028D5F8980013D040F00100C5F8980088
:10325000FFF768FA064606E077E000BFFFF762FA7C
:10326000801B022877D8D5F898008007F6D510E0A3
:1032700020F00100C5F89800FFF754FA064604E074
:10328000FFF750FA801B022865D8D5F89800800710
:10329000F6D4E069F0B3A968C1F38101032961D0D4
:1032A0000228286820F0807028600BD0E86820F0A1
:1032B0000300E860E86847490840E860FFF732FA31
:1032C00004464BE0FFF72EFA064604E0FFF72AFA21
:1032D000801B02283FD828688001F7D4F4E9080150
:1032E0006FF00F0202EB01110843218A52044908D2
:1032F00002EB4151A26841EA02210843217D4FF0CF
:103300007E42490802EB41610843217B40EAC160EB
:10331000E96800E062E0304A11400843E86028684C
:1033200040F080702860E86840F08070E860FFF747
:10333000F9F9044605E000BFFFF7F4F9001B022885
:1033400009D828688001F7D548E004E0FFF7EAF9DA
:10335000001B022802D90320BDE8F88328688001F9
:10336000F4D43BE00128F7D0E868226A00F00301BA
:10337000914226D1616A00F0F002090110399142B0
:103380001FD1A26A00F4FE41B1EB022F19D194F8CB
:103390002C2000F07841B1EBC26F12D1218E00F4E5
:1033A000C00249084905A1F50011914209D194F8DC
:1033B000341000F0C06049084906A1F10071814253
:1033C0000CD00120C8E70000001002406C0400206F
:1033D00000700040FFFFEEFE0C809F010020BBE765
:1033E000704710B5401EB0F1807F01D3012010BDA1
:1033F0004FF0E02460610F21601705F00CFD002004
:10340000A06107202061002010BD10B5FFF7E8FF84
:1034100010BD0000F0B590F83C20012A4AD00122EE
:1034200080F83C20CA688B6822F440721A434B68CB
:1034300022F480621A430B6822F400621A430B697B
:1034400022F480521A434B6922F400521A430B6B48
:1034500022F480421A430B8B22F4702242EA034288
:10346000154C03680026154DA34201D0AB4203D191
:10347000CF6922F080523A43A34201D0AB4214D12B
:103480000F8D22F4700242EA07520F6A22F0807216
:103490003A434F6A22F000723A43A34201D0AB4252
:1034A00003D1C96A22F000520A435A6480F83C6092
:1034B0000020F0BD0220F0BD002C0140003401408E
:1034C000F0B590F83C300027012B0BD0012380F899
:1034D0003C301368042B23D006DC012B16D0022BC2
:1034E00006D118E00220F0BD082B1ED0102B21D0F1
:1034F0000024234626462546012920D0022931D022
:103500000127002180F83C103846F0BD0124002638
:1035100063020925F0E70224012663020A25EBE78E
:103520000424022663020B25E6E70824032663022F
:103530000C25E1E71024042663020D25DCE7D0F812
:1035400000E0DEF860C051689268B1402CEA040CDB
:10355000214041EA0C01AA4099431A400A43CEF89F
:103560006020CEE7D0F800E0DEF864C051689268D1
:10357000B1402CEA040C214041EA0C01AA409943D5
:103580001A400A43CEF86420BBE70000F0B590F87B
:103590003C20012A3AD0012580F83C50022280F8D4
:1035A0003D2003685A689C68194E1A4FB34201D0F7
:1035B000BB4204D122F4700C4A6842EA0C02DFF8E4
:1035C00058C002EA0C02D1F800C04CEA020CC3F861
:1035D00004C00268B2420DD0B2F1804F0AD00F4B46
:1035E0009A4207D00E4B9A4204D0BA4202D00D4BF9
:1035F0009A4204D1896824F080031943916080F8CD
:103600003D50002180F83C100846F0BD0220F0BD7E
:10361000002C0140003401408FFFFFFD00040040FA
:10362000000800400040014010B5040003D094F8A9
:103630003D0010B107E0012010BD002084F83C00DF
:10364000204600F023F8022084F83D00211D206868
:1036500004F0B8F8012084F8480084F83E0084F8AB
:103660003F0084F8400084F8410084F8420084F868
:10367000430084F8440084F8450084F8460084F848
:10368000470084F83D00002010BD000008B5006828
:103690000649884208D10648016E41F4006101667E
:1036A000006E00F40060009008BD0000002C014096
:1036B000001002402DE9F0410D46040003D094F8BB
:1036C0003D0018B108E00120BDE8F081002084F839
:1036D0003C00204600F042F8022084F83D002068BB
:1036E00081681D4A11408160211D206804F06AF83C
:1036F000226890689169166A2B68AF69034340F2AB
:103700000330814341EA0721A868EF6908434FF677
:10371000FC418843E96840EA0720014328692F6A91
:10372000000140EA0730084369686D6926F0AA067F
:1037300046EA0515294393602268906154F8480BC6
:103740000162012004F81F096075A075E0762077FA
:1037500020750020B8E70000F8BFFEFF10B586B066
:10376000044614216846FCF7B5FE124920688842D9
:103770001DD11148816D41F004018165816D01F019
:1037800004010591C16C41F00201C164C06C0121CA
:1037900000F002000590C02000900220CDE9010158
:1037A0000021CDE9031069460448FEF791FE06B0FA
:1037B00010BD000000080040001002400004004856
:1037C00030B587B0044614216846FCF783FE2149D2
:1037D000206888423CD12048C16C41F00401C1649A
:1037E000C16C01F004010591C16C41F00201C1649A
:1037F000C16C01F002010591C16C41F00101C1648D
:10380000C06C022400F0010005904FF40050CDE997
:1038100000040425029469461048CDE90345FEF7EB
:1038200057FEA003CDE90004029469460C48CDE997
:103830000345FEF74DFE4FF4B850CDE900040620D5
:103840000294CDE9034069464FF09040FEF740FEF8
:1038500007B030BD002C01400010024000080048B5
:103860000004004870B5044690F83C0000260D4660
:1038700001280BD0012084F83C000C2A4AD007DC38
:1038800082B1042A20D0082A06D131E0022070BD7E
:10389000102A53D0142A63D00126002084F83C005B
:1038A000304670BD206803F0EFFF2068816941F069
:1038B000080181612068816921F00401816120682B
:1038C00081692A69114311E0206804F02BF820680F
:1038D000816941F4006181612068816921F480611E
:1038E0008161206881692A6941EA02218161D4E706
:1038F000206804F05FF82068C16941F00801C161E7
:103900002068C16921F00401C1612068C1692A6988
:10391000114311E0206804F095F82068C16941F472
:103920000061C1612068C16921F48061C1612068C2
:10393000C1692A6941EA0221C161AEE7206804F049
:10394000C9F82068016D41F0080101652068016D2A
:1039500021F0040101652068016D2A69114311E01D
:10396000206804F0EFF82068016D41F40061016502
:103970002068016D21F4806101652068016D2A696C
:1039800041EA0221016588E710B5040003D094F8EC
:103990003D0010B107E0012010BD002084F83C007C
:1039A000204600F022F8022084F83D00211D206806
:1039B00003F008FF012084F8480084F83E0084F8F2
:1039C0003F0084F8400084F8410084F8420084F805
:1039D000430084F8440084F8450084F8460084F8E5
:1039E000470084F83D00002010BD704770B50446C4
:1039F00090F83C00012812D0012584F83C500220A8
:103A000084F83D00204604F0D5F801004FF0000096
:103A100007D084F83D5084F83C00012070BD02209E
:103A200070BD2168CA6822F04002CA602168CA6875
:103A300022F48042CA6084F83D5084F83C000020A3
:103A400070BD90F88010012918D0012180F88010F5
:103A50002421C0F8841050F8641B0A680B6823F016
:103A600001030B6022F000510022026050F8643C18
:103A700019602021016202771046704702207047CA
:103A80007047704770B5044690F8800001281DD03B
:103A9000012084F880002420C4F884002068056890
:103AA000026822F0010202602068826822F06062EF
:103AB0000A438260204604F003FB20680560202052
:103AC000C4F88400002084F8800070BD022070BD1E
:103AD00070B5044690F8800001281DD0012084F8BC
:103AE00080002420C4F8840020680568026822F061
:103AF000010202602068826822F060420A4382600C
:103B0000204604F0DDFA206805602020C4F8840017
:103B1000002084F8800070BD022070BD704770479F
:103B2000704700002DE9F04103680446D869196820
:103B30009A6840F60F0528424FF0000509D1860625
:103B40007ED501F0200602F080573E4378D0216FE9
:103B500027E1A94EA94F16400F40374370D0C70741
:103B600009D0CF0507D501271F62D4F88C3043F068
:103B70000103C4F88C3083070AD5D30708D027681F
:103B800002233B62D4F88C3043F00403C4F88C3039
:103B900043070AD5D30708D0276804233B62D4F82B
:103BA0008C3043F00203C4F88C3003070CD501F0CD
:103BB0002003334308D0266808233362D4F88C30BE
:103BC00043F00803C4F88C3003050BD54B0109D52D
:103BD00026684FF400633362D4F88C3043F020033E
:103BE000C4F88C30D4F88C30002B3AD0800609D53C
:103BF00001F0200002F08051084303D0216F09B189
:103C000020468847D4F88C0021688968490602D488
:103C100010F0280F27D0204604F012FB206880689F
:103C200040061BD52068083050E8001F21F04001F5
:103C300040E80012002AF5D1E06F78B1704900E049
:103C400017E08163E06FFEF794FB002809D0E06F76
:103C5000816B00E02046BDE8F04108472046FFF7B1
:103C60005FFFBDE8F0812046FFF75AFFC4F88C5093
:103C7000F7E7E76E2026012F7ED1C7067CD5CF0659
:103C80007AD51020186220688068400642D5E16F1E
:103C9000086840680004000CE3D0B4F85C2082425D
:103CA000DFD9A4F85E000868006880062BD420687D
:103CB00050E8001F21F4807140E80012002AF6D17C
:103CC0002068083050E8001F21F0010140E8001290
:103CD000002AF5D12068083050E8001F21F040018B
:103CE00040E80012002AF5D1C4F88860E566216832
:103CF00051E8000F20F0100041E80002002AF6D140
:103D0000E06FFEF701FBB4F85C00B4F85E10401AF7
:103D100081B22CE0B4F85C00B4F85E10401A81B2B5
:103D2000B4F85E0000289CD000299AD0226852E89E
:103D3000000F20F4907042E80003002BF6D12E4BC8
:103D4000DB432068083050E8002F1A4040E8002785
:103D5000002FF6D1C4F88860E5662567226852E82E
:103D6000000F20F0100042E80003002BF6D120469F
:103D7000FFF786FE75E7FFE7C70209D5570207D5AB
:103D80004FF4801018622046BDE8F041FFF7C7BE2F
:103D900003060AD501F0800302F40002134304D0A5
:103DA000616F00297FF456AF5BE7420611D54A06E2
:103DB0000FD52046016851E8002F22F0400241E86B
:103DC0000023002BF6D1C0F88460456700F0B0F9FD
:103DD00047E7020206D54A0004D52046BDE8F04177
:103DE000FFF79CBEC001C5D50029C3DA2046BDE857
:103DF000F041FFF746BE0000010000102001000462
:103E00002D82000810B5040003D0D4F8840010B14E
:103E100007E0012010BD002084F88000204600F05B
:103E200027F82420C4F884002068016821F00101EB
:103E30000160204604F046FC0128EBD0A06A10B1D6
:103E4000204604F05FF92068416821F49041416008
:103E50002068816821F02A0181602068016841F0B2
:103E6000010101602046BDE8104004F0AFB9000038
:103E70002DE9F04397B00646142111A8FCF72AFB60
:103E800044216846FCF726FB46493068464DDFF87A
:103E90001C91022700244FF00708884250D1684641
:103EA00000970294FEF704FE08B1FDF705F8A86D2F
:103EB00040F40030A865A86D00F400301690E86C5E
:103EC00040F00200E864E86CCDE9127400F00200F2
:103ED00016901820CDE91448119011A94846FEF714
:103EE000F7FA344D3248802728601A20C5E90104CA
:103EF000C5E903476C61AC61EC6128462C62FEF7B2
:103F000075FA08B1FCF7D8FFF567AE6228482A4D6C
:103F1000143005F1080128601B206860102081E83A
:103F200091006C61AC61EC6128462C62FEF75EFA90
:103F300008B1FCF7C1FFB567AE6217B0BDE8F0830A
:103F40001E498842F9D10420009003946846FEF788
:103F5000AFFD08B1FCF7B0FFA86D40F48020A86564
:103F6000A86D00F480201690E86C40F00200E86430
:103F7000E86C13AA00F0020016904FF44060CDE9FF
:103F80001107012082E8110111A94846FEF7A0FAA5
:103F9000002205212720FEF72FFC2720FEF71EFC1C
:103FA000CBE700000044004000100240000400483D
:103FB00008000240CC0800202C09002000480040E6
:103FC00030B4D0F88830202B20D1E1B1DAB190F8AC
:103FD0008030012B1AD0012380F880300023C36683
:103FE0000B4C0368A3420BD05B681B0208D5046826
:103FF00054E8003F43F0806344E80035002DF6D1DB
:1040000030BC04F099BC012030BC70470220FBE7B3
:104010000080004010B5134C6188402901D3002175
:1040200061800068104988421BD110480068C0694F
:10403000C043000704D401220A490C48FFF7C0FF1F
:10404000608810B92178052904D1094A21781154D2
:10405000401C6080BDE81040012202490348FFF780
:10406000AFBF10BD00000020004800403C08002009
:10407000A00400202DE9F8430446D0F884001F4630
:1040800016460D46202851D1DDB1D6B194F88000F6
:1040900001284BD0012084F880004FF00008C4F8BC
:1040A0008C802120C4F884001834FEF73BFBA687DF
:1040B0008146E68754F8100C183CB0F5805F03D0B9
:1040C00004E00120BDE8F883206920B12E460025D8
:1040D00084F8808010E00026FAE78021204604F072
:1040E000B7FCB8B9C6B116F8010B21688862B4F8FC
:1040F0005600401EA4F85600B4F856004B464FF048
:10410000000200970028E8D14FF04001204604F05B
:104110009FFC30B10320D5E735F8020BC0F308004F
:10412000E3E72020C4F884000020CBE70220C9E7A1
:10413000704730B5BFB015461C466A46FDF729F8F2
:10414000234600226946284603F08EFA3FB030BD70
:1041500030B5BFB015461C466A46FDF71BF823462E
:104160006A460021284603F07FFA3FB030BD30B5E3
:10417000BFB015461C466A46FDF73AF823466A4624
:104180000021284603F070FA3FB030BD30B5BFB013
:1041900015461C466A46FDF72CF823460022694660
:1041A000284603F061FA3FB030BD70B51446C0B088
:1041B0000D46064600226946204603F055FA04469D
:1041C0006A462946304603F01FFA40B0204670BDCB
:1041D00070B51446C0B00D4606466A46002120461A
:1041E00003F042FA04466A462946304603F00DFAC7
:1041F00040B0204670BDF8B514460E460546002274
:104200001146204603F030FA04466A46012128464A
:10421000FCF7BFFF9DF800103046FCF7ACFC8DF8B2
:1042200000000146284603F0F1F92046F8BD70B5BC
:1042300014460D46064600221146204603F014FAA5
:1042400004462946304603F0E3F9204670BD03F0EA
:1042500047FDFEE700EB8100006E00F0F84070477C
:1042600000EB8100006E00F0F84070478068C0F3FA
:10427000C00070478068C0F3C00070478168034A7F
:10428000114041F00801816070470000C0FFFF7FCE
:104290008068C0F3800070478068C0F3800070477A
:1042A0000C2303EA911310B51844036B01F01F01AE
:1042B0001F248C40C2F38462A3438A4013430363E8
:1042C00010BD042303EAD15310B518444369C1F368
:1042D000045107248C40A3438A401343436110BD1B
:1042E000042303EAD15310B518444369C1F30451C0
:1042F00007248C40A3438A401343436110BD00EB65
:104300008100016E21F0004111430166704700EB0E
:104310008100016E21F000411143016670470000E9
:10432000034A515C425842F001024250704700007B
:104330003C920008044B001D595C0B586FF30F03AF
:1043400013430B50704700003C92000808B541F43D
:104350008032C261C161C261C069009008BD0000C5
:1043600010B5012925D0042925D0102925D04029B0
:1043700025D0B1F5807F24D0B1F5806F23D0B1F581
:10438000805F22D0B1F5804F21D0B1F5803F20D0A1
:104390000921114B18305B5C184403680E4C0A3439
:1043A000615CF0248C40120CA3438A4013430360E9
:1043B00010BD0021EDE70121EBE70221E9E7032130
:1043C000E7E70421E5E70521E3E70621E1E7072127
:1043D000DFE70821DDE7000020940008012922D052
:1043E000042922D0102922D0402922D0B1F5807F83
:1043F00021D0B1F5806F20D0B1F5805F1FD0B1F52D
:10440000804F1ED0B1F5803F1DD009210F4A1830D2
:10441000525C104402680D4B0A335B5C08219940E2
:104420008A43026070470021F0E70121EEE7022194
:10443000ECE70321EAE70421E8E70521E6E70621A6
:10444000E4E70721E2E70821E0E7000034940008F0
:10445000012922D0042922D0102922D0402922D09B
:10446000B1F5807F21D0B1F5806F20D0B1F5805FAC
:104470001FD0B1F5804F1ED0B1F5803F1DD009216E
:104480000F4A1830525C104402680D4B0A335B5CD3
:10449000082199400A43026070470021F0E701219A
:1044A000EEE70221ECE70321EAE70421E8E7052132
:1044B000E6E70621E4E70721E2E70821E0E700005C
:1044C0003494000810B5012924D0042924D01029DF
:1044D00024D0402924D0B1F5807F23D0B1F5806F5E
:1044E00022D0B1F5805F21D0B1F5804F20D0B1F559
:1044F000803F1FD00921104B18305B5C18440368C3
:104500000D4C0A34615C0D4C8C40A3438A4013432C
:10451000036010BD0021EEE70121ECE70221EAE78C
:104520000321E8E70421E6E70521E4E70621E2E7C5
:104530000721E0E70821DEE734940008730001005A
:104540004268024B1A400A43426070478FFFFFFDEA
:10455000F0B51B4C91B06288082A20D30523694628
:10456000184801F097F9A0F57F41FF3917D00546AB
:1045700000206080144F02464FF400746E462146BE
:104580003846FEF7C9F84FF47A732A4631460F4889
:10459000FFF770FD012221463846FEF7BDF80C48B2
:1045A0004FF400410068427E4FF09040062A05D04B
:1045B0005FF00002FEF7B0F811B0F0BD0122F9E79C
:1045C00000000020A0040020000400483C08002057
:1045D0000400002010B50446006802F0E8FF61689E
:1045E000086110BD10B50446807F01282ED1217BC3
:1045F0000020012904D002290DD0032924D119E07B
:10460000616881F824000321206802F0F3FFE28A48
:10461000B4F90E1009E0616881F8240004212068D3
:1046200002F0E8FFE28AB4F91010206802F06EFF91
:1046300040B909E06168012081F824006068D4F87D
:1046400012100161022000E00320A07710BD0123B9
:104650000373C181C28283770321C177704702232C
:1046600003730182C282012181770421C1777047DF
:1046700010B5044600F040F80B2803D1204600F0A6
:104680001BF808B1002010BD0020A0830220207676
:10469000012010BD438B0B4393434383828B0A431A
:1046A0008283704710B5006802F08FFFBDE81040AC
:1046B00002F0B9BEC07F7047408B7047818B408B42
:1046C00041EA0040704740680068704740684068B1
:1046D00070474068C0687047406800697047C08A8A
:1046E0007047B0F90E007047B0F9100070470068CD
:1046F00002F065BF808B7047407E70474068B0F91C
:104700001E0070474068D0F81A0070474068D0F823
:104710001600704780E80E0000210173C1810182FC
:10472000C18281770176417641838183704701465A
:10473000807F022801D0032801D100228A777047A8
:1047400003220273418209148182012181770421AD
:10475000C177704710B50446FFF7CEFF38B9204641
:10476000FFF7C8FF18B92046FFF7A6FF08B10020E1
:1047700010BD01202076A07710BD70B50546FFF76B
:10478000BBFF38B10C2805D001242846FFF7B2FF43
:1047900010B10AE00024F8E72846FFF78DFF20B9A2
:1047A0001CB105202876012070BD002070BD006876
:1047B00002F026BF014661F30F0044F6E61211FB3A
:1047C00002F244F6E61311FB23F10A441144494274
:1047D000CA13094BB2F5004F01DB590C03E019462F
:1047E0008A4200DB11B261F31F40994203D148F2C3
:1047F000010161F31F4070470080FFFF2DE9F04188
:104800000546084600F062F80FFA85FC07B21CFB6B
:1048100007F12E14051416FB05F0081AC3134FF404
:104820000040411E4242834201DB0B4604E09342BA
:1048300001DA134600E01BB2DFF838E063F30F043F
:10484000934201D16EF30F041CFB05F316FB07F531
:104850002B44DB13834204DA934201DA114600E071
:1048600019B2204661F31F40914201D16EF31F40FF
:10487000BDE8F0810180FFFF70B50446084600F0F6
:1048800025F814FB00F12214031412FB03F6314443
:10489000CE13294666F30F0114FB03F312FB00F05D
:1048A000C01AC01360F31F41084670BD002809DD1F
:1048B00072B6054940F269120A6048608868C00B08
:1048C00062B6704700207047000C024004494FF068
:1048D00060120A60034A104448608868704700000C
:1048E000000C02400000FF7F2DE9F047B1F8008086
:1048F00004464FF000094E465FEA080045D02068A4
:10490000C289424501D209203DE0887884F821001F
:10491000C87884F823000A7984F825204A7984F835
:1049200027208D1DA17F1044884234D8002717E02E
:104930006068B5F800A000EB8701504602F060F80F
:1049400094F82300B84201D9022002E0504602F058
:1049500045F8E168C8557F1C304486B2FFB2AD1CF3
:1049600094F8230094F827100844B842E0D8B11D09
:104970008845C8D3A8EB0600801E6083287884F899
:10498000290010B104E0814602E0204600F0F1F871
:104990004846BDE8F0870A20F5E7000070B50446F8
:1049A000C07F94F82210884276D10025E577208BCD
:1049B000C0BB2068092204F114010368984778B34A
:1049C00051496069096801600420208384F82050FF
:1049D00094F8290094F82A10884223D084F82A00F9
:1049E00094F8231084F8241094F8270084F8280001
:1049F00094F8212084F8222094F8252084F8262099
:104A0000628BA28308448200D4E901100C34FBF7C6
:104A10002FFDE07DE17E421874E80310FBF7E3FC14
:104A2000208BC0B3208BA18B884239D861690144A7
:104A300000200AE0A26852F82020128821F8022BF8
:104A4000228B921C401C2283C0B294F82420824204
:104A5000F0D894F82610FE2922D294F8200088423B
:104A60001BD184F82050D0B20EE0228B6169114432
:104A7000A26852F8202012680A602269218B125C19
:104A8000401C11442183C0B294F8281094F82420CB
:104A900011448142E9D803E033E0401C84F820004F
:104AA000208BA18B88422BD994F82600FE2818D1A0
:104AB00094F824000EE0228B61691144A26852F838
:104AC000202012680A602269218B125C401C11446C
:104AD0002183C0B294F8281094F824201144814214
:104AE000E9D8218B6069084494F82A100180208B52
:104AF0006169801C82B2206809234668B04725831B
:104B000070BD401CE07770BD7C04002070B5044689
:104B1000008B00282CD094F82600FE2818D194F899
:104B200024000EE0228B61691144A26852F8202013
:104B300012680A602269218B125C401C1144218397
:104B4000C0B294F8281094F8242011448142E9D886
:104B5000218B6069084494F82A100180208B6169D8
:104B6000801C82B2206809234568A8470020208362
:104B700070BD70B50025044680F82950008B60B1E7
:104B80006169084494F82A100180208B6169801CB7
:104B900082B2206809234668B04724F8185FA574DC
:104BA000E571A57270BD0000F8B5416804460026A5
:104BB0000A88012322F007004FF4807CB3EB102F0A
:104BC00002D1C0F3C4066046521E3D4D02F00702FA
:104BD00005EB4215A289891C921E97B2A7816160DC
:104BE00022684FF0000E9289A4F80EE0521E12B215
:104BF000382844D00CDC10F0070F15D14FEAE00044
:104C0000072811D2DFE800F012171C3321252E00EF
:104C1000602809D002DC482806D134E004F10E03F4
:104C2000682834D0604538D0022042E00420E0817A
:104C3000A068037021E091B2204602F03FFB38E00B
:104C400091B2204602F060F933E02846FFF795FD67
:104C500013E02846FFF750FD06280ED12846FFF73F
:104C6000A6FD0AE02846FFF747FD0028EDD12846BB
:104C7000FFF770FD80F001001BE0002019E02846DE
:104C8000FFF7F6FCF9E72846FFF7A4FCF5E7A06874
:104C90000090384600F01AF80BE0022E08D20948BE
:104CA00050F8265025B1A06800903846A84700E08B
:104CB0000D20E289A1688854E089401CE081F8BD9C
:104CC0009809002028040020704770470220704790
:104CD000044810B50078002803D000F005F803F070
:104CE00073F910BD3004002070B5194D28780128E3
:104CF0002CD1688808B1401E1CE003F045F8FFF78E
:104D0000E4FF144C04F10C01206882689047606055
:104D100078B120680A2204F108010368984740B17D
:104D20002046FFF741FF2068E289A16844680A2312
:104D3000A04701206880A88810B1A888401EA880DC
:104D4000E888002802D0E888401EE88070BD000096
:104D500030040020EC0300202DE9F047060066D067
:104D6000DFF8D090002189F80010334909F10C08D0
:104D70000846C8F8001000F0CFFF3048FBF771FE7E
:104D800004F068F92E4800F0E5FB2E48FCF741F8E6
:104D90002D4C2C4B2D4A2E482168FBF752FFA8F1D1
:104DA00004012B480860274A2549206802F012FCBC
:104DB000264803F0E8FF274800F0CCFB264800F027
:104DC000C9FB264802F024FB25482449254D0068EC
:104DD000C0E90251244800F08FFB08F10401234888
:104DE000086001F0F3FD0020FCF780F8012785F84A
:104DF0002470206802F0DBFB2861206802F0D7FBFA
:104E00000014A882D8F800302A4619482168FFF714
:104E100081FC206802F0D6FB014600221448FFF70F
:104E200016FC13483060FFF74FFF89F80070BDE8AB
:104E3000F087000030040020D0000020780300201C
:104E4000180000209801002050030020600100207D
:104E500014020020440000207000002058020020AE
:104E600060030020381B0020300200208402002054
:104E700098090020F0B59BB00024179418943C21A9
:104E800068461994FBF726FB20210FA8FBF722FBAD
:104E900036484FF0A0410425C0E900144FF400410A
:104EA000C0E9024101268561C0E9044604774477E0
:104EB0000227076280F82440C462046380F8384007
:104EC000C46380F84040FCF793FE08B172B6FEE779
:104ED00017A926481794FCF713FC08B172B6FEE731
:104EE000234800900920CDE90106CDE9045484202F
:104EF0000A908DF8244080207F2608978DF8254061
:104F00000B9003968DF826408DF83040694617487F
:104F1000FCF770F908B172B6FEE71648009040F24F
:104F20000F10019069461148FCF764F908B172B698
:104F3000FEE711480F9010A9062081E86100CDE935
:104F400013540FA90948FCF747FC08B172B6FEE7F5
:104F50000A480F900C2010900FA90448FCF73CFC65
:104F6000002801D072B6FEE71BB0F0BDE0040020BF
:104F70000800900C00106032020030042000F01491
:104F800070B590B03C216846FBF7A4FA2548244947
:104F90000024C0E90014C901C0E9024100F1100178
:104FA0000125042681E8700004774477056280F8C3
:104FB000244080F83840C46380F84040FCF718FE75
:104FC00008B172B6FEE7184800900920CDE9010546
:104FD0007F200594CDE903060220089084200A90E2
:104FE0008DF8244080208DF825400B908DF82640C8
:104FF0008DF8304069460B48FCF7FCF808B172B6F2
:10500000FEE70A48009040F20F10019069460548FB
:10501000FCF7F0F8002801D072B6FEE710B070BDC2
:10502000000100504C0500200800900C00008CCBC3
:1050300000B58DB030216846FBF74CFA154914488D
:1050400008600846FDF738F908B172B6FEE700209F
:1050500002218DF804008DF805000290CDE90610BC
:105060000091CDE904010390024669460948FDF725
:1050700049F808B172B6FEE7102269460548FDF707
:1050800041F8002801D072B6FEE70DB000BD000067
:10509000001000504C0600202DE9F04186B014218C
:1050A0006846FBF717FA2848C16C41F00401C16457
:1050B000C16C01F004010591C16C41F02001C16493
:1050C000C16C01F020010591C16C41F00101C16486
:1050D000C16C01F001010591C16C41F00201C16494
:1050E000C06C4FF4084400F002004FF09047059068
:1050F000002221463846FDF70FFB0122DFF84C80E5
:10510000560231464046FDF707FB0125CDE9004533
:1051100000240294694638460394FDF7D9F90096B5
:10512000CDE90154694640460394FDF7D1F94FF4A7
:105130006160FDF7BBF90122D1023846FDF7ECFAB8
:1051400006B0BDE8F08100000010024000040048F5
:1051500010B5FDF7DFFE4FF4FA61B0FBF1F0FEF79A
:1051600040F9064800220168501EFDF745FB04483F
:10517000FFF7F2FDBDE8104003F010BF6C04002003
:105180000400002010B5012203212620FDF734FB86
:105190002620FDF723FB002203210B20FDF72CFB2B
:1051A0000B20FDF71BFB012204211820FDF724FB37
:1051B0001820FDF713FB002211461920FDF71CFBF8
:1051C0001920FDF70BFB002202211220FDF714FB32
:1051D0001220FDF703FB002203211E20FDF70CFB2C
:1051E000BDE810401E20FDF7F9BA00002DE9F0419E
:1051F000A0B0142117A8FBF76DF900241E941C948D
:105200001D94149415941C2168461694FBF762F9BA
:10521000342107A8FBF75EF950484F494FF48078D6
:10522000C0E900142021816042F23411C0E9031862
:105230000127C0E90574FEF7F7F908B172B6FEE779
:105240004648FEF7A1FB08B172B6FEE7062010261D
:10525000CDE9170617A94148FEF7C8FB08B172B699
:10526000FEE77025CDE91C541CA93C481E94FEF7AE
:105270008DF908B172B6FEE70220CDE914070146A8
:1052800014AA16943548FEF71BF908B172B6FEE76A
:105290000420149014AA02213048FEF711F908B135
:1052A00072B6FEE714AA02212C481496FEF708F9FC
:1052B00008B172B6FEE76020009041F29A00CDE995
:1052C000010403940494059400226946234806943B
:1052D000FEF7C8FA08B172B6FEE7042269461F4815
:1052E000FEF7C0FA08B172B6FEE7082269461B480D
:1052F000FEF7B8FA08B172B6FEE742F23310CDE914
:1053000000500C2269461548FEF7ACFA08B172B697
:10531000FEE74FF4006007904010CDE908083B20FD
:10532000CDE90A044FF40050CDE90C04C002CDE9E8
:105330000E40400010900F20CDE9110407A9074846
:105340001394FEF767F808B172B6FEE70348FEF75C
:1053500037FA20B0BDE8F081002C0140140700208E
:1053600010B58CB024216846FBF7B4F80024174828
:1053700009940A9414490B94C0E9001440F23F6167
:10538000C0E90241046184610320CDE900040120E9
:10539000CDE902040E210491CDE90540CDE9074194
:1053A00069460A48FEF786F908B172B6FEE7099425
:1053B00009A906480B94FEF7E9F8002801D072B657
:1053C000FEE70CB010BD00000008004060070020A0
:1053D000174810B5154901604FF4E13141600021D3
:1053E00081600C22C160C0E904128161C161016267
:1053F00041628162FEF706FD08B172B6FEE7002148
:105400000B48FEF765FB08B172B6FEE700210848BD
:10541000FEF738FB08B172B6FEE70548FEF711FB50
:10542000002801D072B6FEE710BD00000044004025
:10543000AC070020174810B5154901604FF416510C
:105440004160002181600C22C160C0E904128161C9
:10545000C161016241628162FEF7D4FC08B172B69B
:10546000FEE700210B48FEF733FB08B172B6FEE7FA
:1054700000210848FEF706FB08B172B6FEE70548B2
:10548000FEF7DFFA002801D072B6FEE710BD00007B
:10549000004800403C08002010B50446007808B1E0
:1054A000002014E094F8260001F028F90146A0F548
:1054B0007F40FF3808D0208B228A0346401E02FB23
:1054C0000011B1FBF3F02082204600F027F8E082C3
:1054D00080B210BD002101827047017811B1808A2D
:1054E00000B27047018A026A8A1AB0F91E10808CD5
:1054F000514300EB2140F3E710B50446007820B19A
:105500000020E082608A208210BD201D01F0D6F9C3
:1055100084F826002046FFF7DDFF10BD018A428B8C
:10552000914201D908207047828B914201D200201C
:105530007047C08A7047B0F922007047C08C70472E
:10554000B0F906007047C08B7047B0F9040070478F
:10555000808B7047018881804188C180018C4184A3
:10556000002181608162704781607047418470478B
:105570000122C1848A4082847047C180704770B51F
:1055800001248C40C18305464483C4EBC43100F040
:105590000FF8A4EBC431284600F008F870BD8180F4
:1055A0007047012281838A400283704701617047FE
:1055B000C1607047F0B5B0F904600025B0F914304F
:1055C000B0F91640B0F906204E4352B187684A43FD
:1055D000B91808D5002F0BDD002A09DD6FF0004156
:1055E00006E000210DE0002F02DA002A00DA0F4960
:1055F000C2688A4202DB02698A4202DD1146826089
:1056000000E08160827F077F41FA02F23E4132442E
:105610009A4202DD9D1A1A4603E0A24201DAA51A57
:1056200022462944816010B2F0BD000001000080D4
:105630008268D168D2F8162011FB02F311FB3231D7
:10564000CA1701EB12410A14B0F90010521A01EB0B
:1056500022110180704700210180704710B5044677
:10566000C06803F075FBB4F90010D4ED010A48439B
:1056700000EE100AB8EEC00A20EE200A10BD8169C3
:10568000084710B50446002079B101290CD1B4F8BF
:105690004E1041B1491E0904090CA4F84E1003D163
:1056A000E16820468847012010BD204600F0EDF853
:1056B000F6E70268104730B4828F0BB253430A14E6
:1056C000B0F860104A4352005242D418A2EB0303D0
:1056D00004EBD47403EBD37364104FEA63034FEA13
:1056E00091014DD5002B17DA042280F86A20E21AC6
:1056F000D51702EB953201EBA241DA1703EBD23258
:1057000001EB6243E21704EBD232A1EB6244A0F852
:105710004640A0F8481066E0002A17DC032480F811
:105720006A40D41AE51704EB953401EBA441DC1769
:1057300003EBD433D41701EB634302EBD432A3EB76
:105740006244A0F84640A0F8483016E0022380F8F2
:105750006A30A31ADD1703EB953301EBA341E3177E
:1057600004EBD333A1EB6344D31702EBD33204EB46
:105770006243A0F84630A0F84840A0F84A104EE036
:10578000002B17DB012280F86A20E21AD51702EB02
:10579000953201EBA241DA1703EBD23201EB6243FF
:1057A000E21704EBD232A0F84630A1EB6244A0F835
:1057B000481032E0002A19DC052380F86A30A31A69
:1057C000DD1703EB953301EBA341E31704EBD33370
:1057D000A1EB6344D31702EBD332A0F8461004EBDD
:1057E0006243A0F84840A0F84A3018E0002480F84E
:1057F0006A40D41AE51704EB953401EBA441DC1799
:1058000003EBD43301EB6343D41702EBD432A0F89B
:105810004610A3EB6244A0F84830A0F84A400029A3
:1058200000DC002189B2C187002B00DC00239AB282
:10583000A0F84020002C00DC0024A3B2A0F84230E5
:10584000B0F85E40012C1DD1B0F95040002CB0F8EA
:10585000624001DD214400E0091BC187B0F952100C
:105860000029A1B201DD114400E0511AA0F8401056
:10587000B0F954100029A1B201DD194400E0591A11
:10588000A0F84210416930BC084741680847816868
:10589000084700002DE9F0410446007816460F46FF
:1058A000984204D165782846FBF7EFF810B1002044
:1058B000BDE8F08108200F2D01D0102D06D1A07970
:1058C0000930864202D24FF6FF70F1E7C1B220469E
:1058D000FBF7E5F80028EBD0A078E178627901EBDE
:1058E0000020217980B202EB012189B2082D01D973
:1058F000093D00E06D1E054BEAB253F822503B46CD
:105900002246AC46BDE8F04160470000800400201C
:1059100038B5044680681E490840A060A0681D4D47
:10592000C0F3007078B9A068284040F08050A060B3
:1059300019481A490068B0FBF1F0400000E0401E31
:1059400000900028FBD1A0681549084040F00040B5
:10595000A060A068C00FFCD103E0A0682840401CF4
:10596000A060206810F0010FF7D02046FEF786FCFB
:10597000A068284040F02000A060E0680949084085
:1059800040F40010E060A0682840001DA06038BD11
:10599000C0FFFF5FC0FFFF7F78040020400D0300C1
:1059A000C0FFFF3FFFFFDF7F00281CD090F884106E
:1059B000A9B9D0F8881091F8C020022A0FD10A6A3C
:1059C000B1F8AC109162D0F888104A6AB1F8AE1004
:1059D0009162D0F888108A6AB1F8B0109162012102
:1059E00080F882106830704700280CD0D0F88810FA
:1059F00089684A6C42F480624A64012180F883100D
:105A000080F88410683070472DE9FC5F0446D0F8B8
:105A100088004FF0800B4FF00409D0E9016507685A
:105A200094F86E004FF0000801287DD020680090A7
:105A300060690190C4F87080C4F87480C4F87880FC
:105A400084F88080296A40F2555A21EA0A012962C5
:105A50004348206043486061A4F87EB084F8819098
:105A600084F86A90204600F0A5FC3F496868084029
:105A70007028FBD13846FEF701FC3046FEF7FEFBEE
:105A8000D4F8880004F1800304F1440190F8C120A7
:105A90001F460E46284603F00DFB204600F056FC3C
:105AA00084F880803149216084F8818084F86A809C
:105AB000204600F07FFCD4F888003B46314690F841
:105AC000C120284603F0F6FA204600F03FFC206F84
:105AD000012100092067606F00096067A06F00095D
