:020000040800F2
:10000000780C0020D900000841350008D52D0008E3
:1000100000000000000000000000000000000000E0
:100020000000000000000000000000009D370008F4
:100030000000000000000000BD350008FF37000888
:10004000EB000008EB000008EB000008EB000008E4
:10005000EB000008EB000008EB000008EB000008D4
:1000600000000000010B0008EB000008EB00000896
:10007000EB00000875380008EB000008EB000008F2
:10008000EB000008EB000008EB000008EB000008A4
:1000900000000000EB000008EB000008EB00000887
:1000A000EB000008EB000008EB000008FD42000830
:1000B000EB000008EB00000800000000000000005A
:1000C0000448854600F02EFB00480047D94600084A
:1000D000C046C046780C00200448804704480047CA
:1000E000FEE7FEE7FEE7FEE7FEE7FEE773380008FF
:1000F000C100000830B50B46014600202022012433
:1001000009E00D46D5409D4205D31D469540491B4B
:100110002546954040191546521E002DF1DC30BD94
:10012000F0B51FB40646002082B005464024019178
:1001300000901BE0019922460F46304600F02EFA4F
:10014000049A059B801A994110D3104619462246FD
:1001500000F014FA361A8F4101972246012000213F
:10016000009F00F00BFA38184D4100902046641EA5
:100170000028DFDC019B00982946324607B0F0BD1D
:10018000D2B201E00270401C491EFBD2704700222F
:10019000F6E710B513460A4604461946FFF7F0FF86
:1001A000204610BD024670B54A40D30FDB07400021
:1001B0002DD04A002AD0010E140E00021202091995
:1001C000400A520A8418E50104465443000A120A00
:1001D0002E045043A4194219200CC543AA18120C2E
:1001E0000125AD03521C521912047F39240400D09A
:1001F000521C104301D44000491EC2B20C06C00973
:100200002018401C4008802A02D003E0002070BD66
:1002100040084000002900DA0020184370BD70B586
:1002200002464A40D50F40004A00ED0740085208F8
:10023000002814D0002A12D0C40DD30D4102012091
:10024000C0055202490A520AE41A091812187D34EC
:10025000914201D3641C00E04900002C01DA002027
:1002600070BD0023914201D3891A0343400849001D
:100270000028F7D100290AD0914202D10121C907F3
:1002800005E0914201D2012101E00121C943E005CD
:10029000C018401900F0A6F970BD0000F0B507467F
:1002A0000846584087B0C00F049048000E465900D9
:1002B00040084908BC1A884105D2384631461E46D6
:1002C00017460B4602465800400810434DD0300DEB
:1002D000039040055900400D490D0590401A0290C9
:1002E000402873DA18030121000B09050843019027
:1002F00004980092002806D01146019A4942002035
:10030000904100910190029840210A1A01990098A9
:1003100000F034F905460C466B4607CB00F04FF968
:10032000C0197141039A0E0D0023D71756401A4683
:100330007A40164344D0049A002A2DD0029A012A0A
:10034000039A15DC1205C01A914101263605001CDE
:100350007141D20F059ED2070093019202962A4660
:10036000234600F08DF907B0F0BD38463146FAE774
:100370001605234A0F46B218C01AB74101210905D4
:10038000001C4F4100187F41114618187941E20FB7
:1003900010436D19644113E0E2076D0815436408CA
:1003A000C2071443039A01261205C01A914136056B
:1003B000001C7141CE07400830434908C018514124
:1003C0002A46234600F04FF9CDE7FFE704980122C3
:1003D0004000C117121A00238B4104983146C417FC
:1003E000381AA141EEE730B40124E407634030BC81
:1003F00054E730B40124E407614030BC4EE700000C
:100400000000E0FFF0B51FB488B00B9909980024F4
:1004100048400999C00F490049080991C0070B9944
:100420000090490049080B9109990898A64608438D
:100430001CD00B990A98084318D009980124400051
:10044000420D4800410D099824050003000B20438C
:1004500009900B980003000B20430B9050181C4987
:100460004018002201901446104605E00020014685
:100470000DB0F0BD032801DA034600E003239C46DB
:10048000C11A0AAE0AE05F0008ADED5B4F00F75BF2
:100490007D430027AA187C41491C5B1E6145F2DDA3
:1004A000410004AB5A522104120C0A43240C401C94
:1004B0000828DFDB019802900099704601910090B6
:1004C000059B049A0799069800F0DAF8D0E7000037
:1004D0000DFCFFFF10B500229623114600F08AF8AC
:1004E00010BD00000EB5C217C10F5040CA0740181A
:1004F0000021054B0293019200910A460B4600F041
:10050000BFF803B000BD000033040000410040020A
:100510000122400AD205090E80187F2901DA002045
:100520007047962903DC9622511AC84070479639C5
:100530008840704770B5CD0F4A0009030123090BAD
:100540001B0519430B4BED070024520D9A4201DAAB
:10055000002070BD074B34339A4203DC9A1A00F036
:100560001DF802E00449511888402C43F1D0404264
:1005700070BD0000FF030000CDFBFFFF10B5202A77
:1005800004DB0146203A9140002010BD9140202319
:100590009C1A0346E3401943904010BD10B5202A31
:1005A00004DB0846203AD040002110BD0B46D34062
:1005B000D0402024A21A91400843194610BD10B51E
:1005C000202A06DBCB170846203A1041C1170B43FF
:1005D00006E00B461341D0402024A21A9140084364
:1005E000194610BD002904DA401C490001D1400819
:1005F0004000704770B40024050C05D1102400049D
:1006000002D1002921D01124050E01D100020834A5
:10061000050F01D10001241D850F01D18000A41C0C
:10062000002801DB4000641C002908D020252E1B77
:100630000D46F540A14000D00121294308430106A1
:100640001B1B000ADB1D02D5002070BC7047DB05B8
:10065000181880180029F8DA401C4900F5D170BC40
:1006600040084000704710B5002B08DA0024401CF9
:10067000614192185B411A4301D14008400010BD0E
:10068000F0B51FB482B005460C0003D0084603F055
:100690003DFE02E003F03AFE203002460090214683
:1006A0002846FFF76BFF049B059A04460F46184344
:1006B0001143084314D0184610431BD00098402122
:1006C0000A1A18460599FFF769FF05460E46009A73
:1006D00005990498FFF752FF084305D0012004E074
:1006E0002046394607B0F0BD0020C11705430E4330
:1006F0002C43374300990E986305401A7905E40AA4
:1007000000220C43FD0A0A3002D500200146E9E729
:100710000105101969410C9C0D9D00196941FFF7F5
:10072000A2FFDFE7064C0125064E05E0E36807CC93
:100730002B430C3C98471034B442F7D3FFF7C4FC6A
:10074000DC620008FC62000870B58C180578401C5B
:100750006B075B0F01D10378401C2A1106D1027888
:10076000401C03E006780E70401C491C5B1EF9D14A
:100770002B0705D40023521E0DD40B70491CFAE739
:100780000378401CCB1A921C03E01D780D70491CA5
:100790005B1C521EF9D5A142D8D3002070BD10B504
:1007A000846AA16D502211420DD1A06D0121490230
:1007B0000843A065206802F0ADFD00281BD0A07E94
:1007C000002807D017E0A16DC90624D5204600F007
:1007D000C5FB10BD2068016809070CD502F096FD25
:1007E0000146012000290AD0A16D20221143A165F4
:1007F000E16D0143E165204600F0AEFB10BD2168CC
:100800004A680C239A434A60A16DFF22013291434A
:100810000143A165EFE7216D496B884710BD10B515
:10082000806A816D402211438165C16D04221143AC
:10083000C16500F093FB10BD10B5806A00F08DFB20
:1008400010BD0000F8B5044600200090206802F0BA
:1008500059FD002845D120688168234A102611409F
:10086000002930D18168D5432940491C81601F4847
:10087000006807218905084000020AD51D481C4967
:100880000068FFF737FC401C00E0401E0090002885
:10089000FBD1607E012824D000F048FF07461BE012
:1008A00002F030FD002804D1206881682940491CED
:1008B000816000F03BFFC01B02280DD92068006852
:1008C000C043C00708D0A06D3043A065E06D012192
:1008D0000843E0650846F8BD20680168C943C907B8
:1008E000DED10020F8BD000017000080082701407D
:1008F000400D03001400002010B5064800F036F843
:10090000FFF7E8FD0449FFF74DFC0449FFF787FCBA
:1009100010BD0000FF3F00000000B44300FC7F4614
:1009200010B511480F490160FF21053141600021D8
:100930000F2212028160C2600161012242615202F3
:100940008261016210224162C261816207220163F9
:10095000C262416301F04EFB5321192000F038F8C8
:1009600010BD000000300140BC07002011B583B06D
:10097000684680890124A403204303F0E9FE01288E
:1009800005D16946888961000843694688816846BF
:1009900081890022214381810524240710212046DA
:1009A00000F0BEFE64200090012301AA03A90748BD
:1009B00001F082FC01221021204600F0B1FE6846C1
:1009C000808804B08004800C10BD0000BC070020AB
:1009D00073B5684600888004800C03F0B9FE0125D9
:1009E000ED03012803D169460888284308800524BF
:1009F000240700221021204600F092FE64230122E9
:100A00006946124801F0A8FB01221021204600F09F
:100A100087FE684680888004800C03F099FE0128D8
:100A200003D1694688882843888000221021204607
:100A300000F076FE6423012201A9044801F08CFB3A
:100A400001221021204600F06BFE7CBDBC07002077
:100A50000021002804D0C21F082A01D3102800D981
:100A600001210846704710B500F0A4F8002801D015
:100A7000002010BD012010BDF0B5064600209446B0
:100A800000291AD0481EC217520F1018C010401C5F
:100A900080B200230FE00024DF003D198D4206DA0A
:100AA0006246755DD25CA54052196546EA54641CE5
:100AB000082CF2DB5B1C8342EDDBF0BD70B5044615
:100AC000002000290ED000230AE05D00665B360A94
:100AD0001654401C80B2655D1554401C80B25B1CEE
:100AE0008B42F2DB70BD000002000846034903D0D0
:100AF0008A4200D1012070470020704700FF0000AB
:100B000010B5024800F058FC10BD0000600700203E
:100B100010B50446006C09498008800040186064E4
:100B2000207814210838FFF7E5FA04498031A164E0
:100B3000C106C90E01208840E06410BD00080240D3
:100B40000179084B8906890E8A00D2180265054A88
:100B50004432491E42658A07920F01219140816506
:100B600070470000FC080240F0B5846CC56C6560FD
:100B7000046D002C02D0446D856D65600B4C65687A
:100B8000066C1C273E400127B7403D436560046862
:100B900063608368102B036803D099600068C260AB
:100BA000F0BD9A600068C160F0BD00000000024026
:100BB00072B6FEE770B50A4DFF23EE1D1A46F936F0
:100BC00005E0047854402A5D5A40335D401C0C46D1
:100BD000491EC9B2002CF4D11002184370BD0000A8
:100BE000DC600008FFB547780446BFB01E463846B3
:100BF000FFF72EFF002802D0002043B0F0BD207880
:100C00003070607802257070012F01D0022F1DD145
:100C1000409800281AD0207961790002401885B2E6
:100C2000FC216846FFF7B3FA6A4629464098FFF769
:100C300023FF0146B070032500206B4604E01A5CD8
:100C400072556D1CADB2401C8842F8DB032F01D0F9
:100C5000042F19D14198002816D02079617900021B
:100C6000401881B26A464198FFF728FF70556D1C05
:100C70000146ADB200206B4604E01A5C72556D1C53
:100C8000ADB2401C8842F8DB042F4CD9A0787055D7
:100C90006D1CA8B2E1783154401C80B221793154E6
:100CA000401C80B261793154401C85B20F2F02D0B4
:100CB000102F22D037E04098002834D00246207907
:100CC00061790002401880B28446A07900218646EE
:100CD00010E00020CB00661800961E18664505DA65
:100CE000009FFF79C740FF07FF0F9755401C08285A
:100CF000F3DB491C7145ECDB15E04198002812D06C
:100D00000146207962790002801886B2002008E04E
:100D100042001719FB798B523F7A1B02DB198B5269
:100D2000401CB042F4DB284667E7704770477047C5
:100D300070470000F8B50027064604464036009785
:100D4000307D0D4601280FD001203075206802F05B
:100D5000DDFA00280AD0A06D20210843A0650127F4
:100D6000002030753846F8BD0220F8BD68680228BA
:100D70007ED001222169D207914202D0121D9142F8
:100D800006D120682968826A4903490B0A436EE04C
:100D9000C206D20E0F20216E904081432868430383
:100DA00002D0C3074BD102E04000C00E48E08307E9
:100DB00001D5012044E0430701D5022040E00307AC
:100DC00001D503203CE0C30601D5042038E08306AA
:100DD00001D5052034E0430601D5062030E00306A6
:100DE00001D507202CE0C30501D5082028E08305A4
:100DF00001D5092024E0430501D50A2020E00305A0
:100E000001D50B201CE0C30401D50C2018E083049D
:100E100001D50D2014E0430401D50E2010E0030499
:100E200001D50F200CE0C30301D5102008E0830397
:100E300001D5112004E0400301D5122000E000207C
:100E40009040014321666968E2698808401C90422D
:100E500010D820682B68826A9C46C906C90E0F23E9
:100E60008B409A4363469B001B0F8B401A4300E064
:100E70003BE082622168AB6828684A6900028243CD
:100E800018404001400902434A612868002800DBFD
:100E900066E72B4A116807239B051940294B9842A6
:100EA00014D10B0212D4C0020143104602F03AFAE8
:100EB000264825490068FFF71DF90C21401C4843CE
:100EC00000E0401E00900028FBD149E7204B9842EB
:100ED00003D1CB0101D4800205E01E4B9842D7D14B
:100EE0004802D5D45802014325E001212069C907F1
:100EF000884202D0091D884206D120682968826A8A
:100F00004903490B8A43826228680028C0DA0C4AE8
:100F1000116807239B0519400A4B984201D1C00272
:100F200008E00B4B984201D1800203E0094B984244
:100F3000AED140028143104602F0F4F910E7000000
:100F400008270140001000B0400D030014000020ED
:100F5000004000B8002000B47047704770470000A0
:100F6000FEB50027044601973E46029700970028E9
:100F700005D02546A06D2035002802D007E00120CD
:100F8000FEBD204600F0FCF8E665542006552068BA
:100F90008168C900C90F12D18168724A11400122CB
:100FA00012071143816071486F490068FFF7A2F88A
:100FB0004000801C00E0401E00900028FBD120680B
:100FC0008168C900C90F08D1A16D10221143A16524
:100FD000E16D01221143E165174602F097F9A16D19
:100FE000C90601D4002804D0A06D10210843A065D3
:100FF000B4E0A06DFF210131884302210843A065C0
:10100000206802F07FF900286DD1217EA068890355
:101010000843617ECA03A17E4B031A431043226B2F
:10102000002A01D0012212031043E2681043226912
:10103000002A02DA5200520801E001225205104350
:101040002A7B52001043019A10432A78012A09D1C1
:10105000002922D0A16D20221143A165E16D01225A
:101060001143E165616A002906D0FF23C1331940AD
:10107000A26A0143104608432168CA683C4B1A40E3
:101080000243CA606168029A890F8907E06C0A43CB
:1010900010432A7F012A04D00CE0012109040843EF
:1010A000E0E7636C226C491C1A43A36C0B431146A6
:1010B0001943084321680A692E4B1A4002430A610A
:1010C00003216068890788420DD0590788420AD0F9
:1010D0004900884207D0284A91680F239B0499430E
:1010E0001840014391600021626B206802F021F9F1
:1010F0002249A26B206802F01CF90F202169C0432D
:1011000000291CD00122520591420AD121688A6A25
:10111000227F9200121FD206D20E9040226E104300
:10112000886220684069616B4007400F88420BD19C
:10113000E665A06D80088000401CA0650FE0216876
:101140008A6A02438A62ECE7A06D0221884310217B
:101150000843A065E06D01210843E065012738469A
:10116000FEBD0000E8FFFF7F400D030014000020DB
:101170000102FEFF02FCFF1F0027014004FFFF07E2
:1011800070B586B0064614216846FFF700F81D4981
:101190003068884233D11C480268012109050A439E
:1011A000026000680840059017484038426B0121F2
:1011B0000A434263406B0091084005900320019070
:1011C0000025052069460295000700F0FBF9104C48
:1011D0000E482060A5600520E560606080202061E9
:1011E00040006061E56180002562A061204600F05A
:1011F0003FF9002801D0FFF7DBFC3465A66206B09A
:1012000070BD000000240140401002400800024070
:1012100060070020F7B50446006802F077F8002860
:1012200045D125464035287D012840D001272F751E
:101230002068C1681F4EC9070CD102F063F800286E
:1012400004D0206881683140891C81602068C168B1
:101250003943C1602046FFF7F5FA002826D1A06D7A
:1012600015490840FF2101310843A0650020E065D1
:10127000226D1249D162226D11491163226D11490B
:10128000516322681C211160287520684168102272
:10129000114341602168206D4031029B019A00F0AA
:1012A00039F921688A683240121D8A60FEBD022029
:1012B000FEBD0000E8FFFF7FFEF1FFFF9F07000873
:1012C000390800081F080008F0B5002808D00146BA
:1012D00020314A79022A05D00422C2630020087115
:1012E0000120F0BD026813680E24A3431360426C12
:1012F0001468FF2301339C43146002681468640877
:10130000640014600C4A5568066C1C2426400124B5
:101310002746B7403D435560826CC56C5560026DF1
:10132000002A05D015689D431560826D406D4260AE
:101330004C7100200871F0BD00000240F8B5002497
:10134000024620325179022903D00421C1630124CD
:101350002DE001680B680E25AB430B6001680B683C
:101360005B085B000B60416C0B68FF250135AB43EC
:101370000B6010494D68066C1C231E4001231F465C
:10138000B7403D434D60816CC56C4D60016D0029D7
:1013900006D00E681D02AE430E60416D856D4D6036
:1013A000537100211171816B002900D088472046BC
:1013B000F8BD000000000240F0B42C490C6802683F
:1013C0001368056C1C273D400426AE40264211D010
:1013D0005E070FD513689B0603D4146804239C434F
:1013E00014604B68046C04223C40A24013434B60E1
:1013F000016B1CE00227AF40064627402036002F35
:1014000019D09F0717D513689B0605D413680A24C3
:10141000A3431360012272714B68046C1C221440B8
:101420000222A24013434B6000213171C16A00299E
:101430001AD0F0BC08470827AF40274214D01B073A
:1014400012D513680E24A34313604B68046C1C224E
:10145000144001221546A5402B434B60C2637271B4
:1014600000213171416BE2E7F0BC7047000002409F
:1014700070B504003FD02548256814212818FEF7D0
:1014800039FE8000206402202646203670712868CC
:101490001F4908402860E168A06862690843216923
:1014A00011430843A1690843E1690843216A0843DD
:1014B00021680A68104308602046FFF729FB0121D4
:1014C000A06889030025884200D165602079616C9D
:1014D0008006800E0860A06CE16C41606068401E70
:1014E00003280AD82046FFF72BFB206D0560606DAE
:1014F000A16D416004E0012070BD25656565A565AD
:10150000E563012070713571002070BDF8FFFDBFEB
:101510000F80FFFFF8B504468C4620300179002586
:1015200001290BD00126067141790027012907D036
:101530008021E163077101252846F8BD0220F8BD2E
:1015400002214171E7632068016849084900016090
:1015500061462046FFF708FB206B002820680168E1
:1015600001D00E2205E00422914301602068016849
:101570000A2211430160606C0168CA03074902D561
:1015800002680A430260206D002802D002680A4304
:1015900002602068016831430160CDE7000100006E
:1015A00070B5044600F0C2F80546601C02D004483D
:1015B0000078241800F0BAF8401BA042FAD370BD9E
:1015C00008000020F0B5002303249AE02A460125F4
:1015D0009D402A407ED00E79B607B60F012E01D06D
:1015E000022E16D186682746B4465E00B646B7403E
:1015F0006646BE43B446CF687646B7406646374334
:1016000087604668AE430D79ED06ED0F9D4035438A
:1016100045600D79ED43AD0708D0C5685F002646EB
:10162000BE40B5438E68BE402E43C6600D79AD07FF
:10163000AD0F022D0ED1DD08AD002D18AC462D6A80
:101640005E07F60E0F27B740BD430F69B7402F4323
:1016500065462F6205685F002646BE40B5430E7999
:10166000B607B60FBE402E4306604D68AD03AD0F02
:1016700046D09E08264DB6007519AC462D6E9E07C5
:10168000F60E0F27B740BD4305273F07B84201D1EB
:1016900000270FE01F4FB84201D101270AE01E4F7B
:1016A000B84201D1022705E01C4FB84201D10327FF
:1016B00000E00527B7402F43154D664637662D6875
:1016C0004E689543F60200D51543114F3D607D6885
:1016D000954300E014E04E68B60200D515437D60E6
:1016E0000B4D80356E684F689643BF0300D5164397
:1016F0006E602E684F689643FF0300D516432E6038
:101700005B1C0A681546DA4000D05FE7F0BD0000B8
:10171000001802400004005000080050000C005067
:10172000002A01D08161704781627047014880685A
:10173000704700000800002002488168027889187C
:10174000816070470800002010B508480024016837
:10175000821511430160032000F00AF8002801D02F
:10176000012401E000F028F8204610BD00200240CE
:1017700070B50F4E002431780546002915D07D2024
:10178000C000FEF7B7FC01460A480068FEF7B2FC4D
:1017900000F08CFE002808D1042D06D20022294634
:1017A000401E00F02BF8756000E00124204670BD5B
:1017B000080000201400002008B509480168012233
:1017C0001143016000681040009005484038C26B2A
:1017D00001040A43C263C06B0840009008BD0000CA
:1017E00040100240002805DBC106C90E01208840D8
:1017F000014908607047000000E100E010B502F008
:101800009DFD10BD10B50F4C21680322520291437B
:1018100001432160C11FFF39FA390ED10A48062160
:10182000006848430949FEF765FC401C02E00028B7
:1018300005D0401E61694905F9D4002010BD032080
:1018400010BD0000007000401400002040420F0056
:10185000F8B5044600680026664D800358D56548F3
:1018600000274038C06BC00009D462484038C26BC2
:1018700001040A43C263C06B0840012700905E4820
:101880000168821511430160FFF750FF009005E0E9
:10189000FFF74CFF0099401A022825D856480068E7
:1018A000C005F5D5E8690321090208400FD0616A37
:1018B00081420CD0E86903210902EA6988430121C9
:1018C00009040A43EA61EA698A43EA61E861C007F8
:1018D0000FD0FFF72BFF009008E0FFF727FF0099DC
:1018E000411A4648814201D9032609E0E869800788
:1018F000F3D5E869032109028843616A0843E86176
:10190000002F05D03B484038C26B01048A43C263B4
:101910002078C00705D068696168800880000843A6
:1019200068612078C00606D568690321890288436A
:10193000A168084368612088800506D5686903218D
:10194000890488436169084368612088400506D599
:101950006869032109058843A16908436861207803
:10196000800606D56869032109038843E1680843B6
:1019700068612088400411D56869E16980008008A9
:10198000084368610121E0698907884206D1194846
:101990004038C168012212041143C16020688002EE
:1019A00010D5686901218905226A8843104368615E
:1019B000206A884206D10F484038C16801221206C9
:1019C0001143C1602088000512D56869032189038D
:1019D000884321690843686101212069890388429D
:1019E00006D104484038C168012212041143C16085
:1019F0003046F8BD401002400070004088130000DF
:101A0000F8B50F46060043D04D4D28684007400FFB
:101A1000B84213D22868C008C00038432860FFF7D6
:101A200085FE044605E0FFF781FE011B4548814223
:101A300061D828684007400FB842F4D13068424C62
:101A400081070DD5400704D5A06807210903084385
:101A5000A060A0680F2109028843B1680843A06014
:101A60003078C00732D0706801280AD002280BD025
:101A700000280FD03449403103280ED0C9698907A6
:101A800004E02168890301E021688901002906DB5F
:101A90000120F8BD21684905F8E7096AEFE7A16868
:101AA000C908C9000143A160FFF740FE009006E0AD
:101AB000FFF73CFE0099411A224881421BD8A068DA
:101AC000382108407168C9008842F1D12868400770
:101AD000400FB84217D91A480168C908C9003943EC
:101AE0000160FFF723FE054607E0FFF71FFE411BDD
:101AF0001448814201D90320F8BD1148006840070D
:101B0000400FB842F1D13078400706D5A0680721D0
:101B100009038843F1680843A06000F031F8A16828
:101B20003C2289091140094A515CC906C90EC840C6
:101B30000749086007480068FFF71AFEF8BD000073
:101B40000020024088130000001002408C4700086B
:101B5000140000200C00002006480749006889682E
:101B6000064A4904490F8900515CC906C90EC8409C
:101B7000704700001400002000100240CC4700080D
:101B800010B5204CA068204A8006400F16D0A068EF
:101B90008006410F501001290FD0A1688906490F16
:101BA000022912D0A0688006400F042823D0A06824
:101BB0008006400F032821D0002010BD206801219D
:101BC0008004400F8140104612E0E1688B07E16815
:101BD0009B0F4906490F491C032B00D01046FEF706
:101BE00089FAE1684904490E4843E168490F491CF4
:101BF000FEF780FA10BD0120C00310BD7D20000259
:101C000010BD0000001002400024F400F8B50400EC
:101C10007ED020783827C007ED4D002846D0A86830
:101C2000E96838408907890F102802D008280BD0AE
:101C300001E0032908D001206268000482420AD131
:101C400029680143296015E0286880032ED5606863
:101C50000028DDD02AE0052301211B0489049A42D3
:101C60002A6802D10A432A60EAE782432A60286888
:101C700088432860606800280CD0FFF757FD0646AF
:101C800004E0FFF753FD801B642873D828688003A5
:101C9000F7D50BE0FFF74AFD064604E0FFF746FDE7
:101CA000801B6428F1D828688003F7D42078800747
:101CB00069D5A868E96838408A070721920FC902E8
:101CC000102802D0002813D001E0022A10D0E068CA
:101CD000002846D02868884321690843286028687E
:101CE000FF21013108432860FFF720FD06462CE064
:101CF0002A68520502D5E268002A89D06A687F23E3
:101D00001B029A4363691B021A436A60002800E0C1
:101D10008DE00ED12868884321690843286028682F
:101D200001218004400F8140AA48FEF7E3F9AA4947
:101D30000860AA480068FFF71BFD002877D122E061
:101D4000FFF7F4FC801B02289FD828684005F7D5D0
:101D500068687F2109028843616909020843686055
:101D600011E02968FF20013081432960FFF7DEFC84
:101D7000064605E098E0FFF7D9FC801B022884D8CE
:101D800028684005F7D42078954E00072ED5A8681E
:101D90008006400F03280AD0A0690028306A16D0B8
:101DA000012108433062FFF7C1FC07460BE0306AAF
:101DB00080071BD5A06900289FD017E0FFF7B6FC6D
:101DC000C01B022870D8306A8007F7D50EE04008A3
:101DD00040003062FFF7AAFC074604E0FFF7A6FCCC
:101DE000C01B022860D8306A8007F7D420784007EB
:101DF0006CD5A86800278006400F042818D0E86B2F
:101E0000C00008D4E96B012000070143E963E96BD6
:101E100001400127009173480168C90519D4016880
:101E2000821511430160FFF781FC00900DE083E013
:101E3000F06980074AD5A06800287DD046E0FFF70A
:101E400075FC0099401A02282ED866480068C00523
:101E5000F5D5A168012910D004200529F16911D018
:101E600049084900F161F1698143F161A0680028E6
:101E700016D0FFF75BFC00900EE0F06901210843EB
:101E8000F061F3E70143F161F7E7FFF74FFC0099D9
:101E9000411A5548814267D8F0698007F5D50EE0B0
:101EA000FFF744FC009007E05EE0FFF73FFC00997D
:101EB000411A4D48814257D8F0698007F5D4002F68
:101EC00004D0E86B012109078843E863E069002832
:101ED0007BD0A9688906490F02294FD00126360612
:101EE0000228286805D0B0432860FFF71FFC04468D
:101EF0003CE0B0432860FFF719FC074604E0FFF719
:101F000015FCC01B02282FD828688001F7D4616A0D
:101F1000206AA26A0843E16A120211430843216B56
:101F20000843616B0843E968304A11400843E860A0
:101F300028683043286000E045E0E868012109078F
:101F40000843E860FFF7F2FB044604E0FFF7EEFB0E
:101F5000001B022808D828688001F7D535E0FFF774
:101F6000E5FB001B022801D90320F8BD2868800189
:101F7000F5D4E8681E490840E86026E00128F4D05E
:101F8000E868226A8107890F91421CD17021626A38
:101F90000140914217D17F21A26A09020140120239
:101FA000914210D11F214904E26A014091420AD1B5
:101FB00007214906226B0140914204D1400F616B19
:101FC0004007884201D00120F8BD0020F8BD000084
:101FD000001002400024F400140000200C00002037
:101FE0004010024000700040881300008C80C11136
:101FF000FCFFFEEEF8B504000CD0606A0025002856
:102000000AD02561656126464036A562707F0028AA
:1020100008D00BE00120F8BD6168C81FFD38F2D080
:10202000E561F0E73577204600F05CF80222727730
:10203000206801684023994301600723E1681B027F
:10204000994201D9002001E0012000030F273F023F
:10205000B94202D0994200D0A562FF2361680533DE
:1020600019402127A368BF023B401943236913404D
:10207000227D1943D207D20F11430123A2695B02CB
:102080001A401143E26938231A401143226A80231F
:102090001A401143A26A9B011A4011432268116041
:1020A000A1690422090C1140626A10231A401143ED
:1020B000626B08231A4011430F23E2681B021A4087
:1020C000114301221203104001432068416020683F
:1020D000C16952109143C1612566012070770020CB
:1020E000F8BD0000F0B587B0044614216846FEF73D
:1020F0004EF817492068884227D116480268811493
:102100000A43026000680840059012484038416B5D
:10211000012631434163406B022530400590202069
:10212000002405273F070090019503946946029516
:1021300004943846FFF746FAC02003946A46049494
:1021400061C269463846FFF73DFA07B0F0BD0000AE
:102150000030014040100240FFB5054604464035BE
:10216000287F002781B01646012809D00120287752
:10217000FFF7DCFA0090687F012804D0022795E081
:10218000022005B0F0BD0298002872D0002E70D059
:1021900003206877002020660299A163A687E6875E
:1021A0002064A880E8802065E0640122A068D20352
:1021B0004021904208D1206802688A43026020686A
:1021C00002680B021A43026020680268520602D4B9
:1021D00002680A4302600721E068090288426068D9
:1021E00026D9002801D0012E1ED1A06B21680088BD
:1021F000C86006E020688168890709D5A16B098855
:10220000C160A06B801CA063E08F401EE0870BE0E4
:10221000FFF78CFA0099411A0498814202D3401CBE
:1022200002D039E0002837D0E08F0028E2D126E044
:10223000002801D0012E1FD1A06B216800780873FF
:1022400006E020688168890709D5A16B09780173C8
:10225000A06B401CA063E08F401EE0870CE0FFF7FE
:1022600065FA0099411A0498814203D3401C03D0B7
:1022700012E01AE000280FD0E08F0028E1D12046BC
:10228000009A049901F09BF9002801D020202066D3
:10229000A068002802D005E0032707E02068C16895
:1022A00080680090206E002800D001270120687708
:1022B00000202877384664E7FFB5044683B0012044
:1022C00001900020254640350090287F0C9F1E4637
:1022D00001280FD001202877FFF728FA0290687FA5
:1022E000616801280DD0CA1FFD3A08D1A1680029F4
:1022F00005D102E0022007B0F0BD042801D0022081
:10230000D1E00498002820D0059800281DD0002E88
:102310001BD0687F042801D0052068770020206644
:1023200005992164EE80AE800499A163E687A687B3
:10233000E064206507210120E268090200038A4267
:102340002268536803D9834302E00120ABE00343D2
:10235000536020680268520603D4026840231A437F
:102360000260E0688842606844D9002801D0012EEC
:1023700039D1A06B21680088C860A06B801CA06365
:10238000E08F401EE0872EE020688168890710D525
:10239000E18F00290DD0019901290AD1A16B09888B
:1023A000C160A06B801CA063E08F401EE08700200E
:1023B000019020688168C9070DD0E98800290AD0FA
:1023C000C068216C0880206C801C2064E888401E56
:1023D000E88001200190FFF7A9F90299401AB8425C
:1023E00001D3781C5ED1E08F0028CDD1E888002889
:1023F000CAD146E0002801D0012E3CD1A06B216853
:1024000000780873A06B401CA063E08F401EE0873B
:1024100031E020688168890710D5E18F00290DD04F
:10242000019901290AD1A16B09780173A06B401CA5
:10243000A063E08F401EE087002001902068816843
:10244000C9070DD0E98800290AD0007B216C0870EB
:10245000206C401C2064E888401EE8800120019028
:10246000FFF764F90299401AB84202D3781C02D0EF
:1024700018E0002F16D0E08F0028CAD1E888002885
:10248000C7D139462046029A01F099F8002803D0B6
:102490000120009020202066012068770020287706
:1024A000009828E703200090F6E70000094910B5DE
:1024B000401E884201D9012010BD074C60610321F4
:1024C000081F01F03BFF0020A061072020610020D1
:1024D00010BD0000FFFFFF0000E000E07047704704
:1024E0007047704770B50446006801690025C9430C
:1024F0008907002915DBC168C943890711D4E91E82
:10250000016101202077206880698007204602D081
:10251000FFF7E7FF04E000F0A7F8204600F0A5F879
:10252000257720680169C943490717D4C168C943A1
:10253000490713D40421C943016102202077206890
:1025400080698005800F204602D0FFF7CAFF04E0B3
:1025500000F08AF8204600F088F8257720680169A5
:10256000C943090716D4C168C943090712D4082111
:10257000C9430161042020772068C0698007204694
:1025800002D0FFF7AEFF04E000F06EF8204600F046
:102590006CF8257720680169C943C90617D4C1685A
:1025A000C943C90613D41021C9430161082020770B
:1025B0002068C0698005800F204602D0FFF791FF98
:1025C00004E000F051F8204600F04FF8257720682D
:1025D0000169C943C90708D1C168C943C90704D102
:1025E000891E0161204600F041F820680169C94355
:1025F000090609D4C168C943090605D48021C94325
:1026000001612046FFF76BFF20680169C943C905D6
:1026100008D4C168C943090604D41249016120469F
:10262000FFF75CFF20680169C943490609D4C16806
:10263000C943490605D44021C9430161204600F041
:1026400016F820680169C943890609D4C168C943DD
:10265000890605D42021C94301612046FFF740FFC8
:1026600070BD0000FFFEFFFF704770477047704766
:1026700010B5014680310A79012A15D001220A716C
:1026800024228A6002681368146864086400146075
:102690000122520793430022426600680360202013
:1026A00088600A71104610BD022010BD7047704747
:1026B00070B5044605468034207901281AD00120DF
:1026C00020712420A0602868066802685208520021
:1026D00002602868826807235B069A430A43826087
:1026E000284601F0CFF8286806602020A06000206E
:1026F000207170BD022070BD70B50446054680345F
:102700002079012819D0012020712420A060286898
:102710000668026852085200026028688268D20087
:10272000D2080A438260284601F0ACF828680660A7
:102730002020A0600020207170BD022070BD704775
:1027400070477047F8B503680446D96918689A68F5
:10275000B44D0E462E4025468035002E75D0B24E23
:10276000B24F1640074037436ED0CF0706D0C7059B
:1027700004D501271F622B693B432B618B0708D5CA
:10278000D30706D0276802233B622B6904273B430B
:102790002B614B0708D5D30706D0276804233B627B
:1027A0002B6902273B432B610B0709D520230340EC
:1027B000334305D02668082333622E691E432E61F9
:1027C0000B0509D5430107D501232668DB023362D7
:1027D0002B69202633432B612B69002B42D08906BD
:1027E0000AD520210840C9050A40104304D0616F72
:1027F000002901D020468847286921688968490650
:1028000002D42821084232D0204601F0FFF8216886
:102810008868400627D5EFF31080012282F31088E4
:102820008B68402293438B6080F3108828680028CF
:1028300019D07F4981632868FEF780FD002811D0F8
:102840002868816B0DE000E017E08E0615D50127A2
:1028500020263F07064017403E430ED0616FB5E08B
:1028600020468847F8BD2046FFF76BFFF8BD20469D
:10287000FFF767FF00202861F8BDE66E012E7DD1CD
:10288000CE067BD5C60679D510221A6223689868D1
:10289000264640064036002849DA2968086840681C
:1028A0000004000CE8D0B78B8742E5D9F0830868B4
:1028B0000068800634D4EFF31080012181F3108882
:1028C00019681701B943196080F31088EFF310807D
:1028D000012181F3108821688B685B085B008B60A5
:1028E00080F31088EFF31080012181F310882168B4
:1028F0008B684027BB438B6080F310882020E86002
:102900000020E066EFF31080012181F31088216838
:102910000B6893430B6080F310882868FEF7D4FCA3
:1029200002202067B08BF18B401A81B235E0B08B6A
:10293000F18B401A81B2F08B00289DD000299BD0EA
:10294000EFF31080012686F310881E68FF272137D9
:10295000BE431E6080F31088EFF31080012383F3E1
:10296000108823689E68304FFF433E409E6080F38E
:1029700010882020E8600020E06600E011E0606739
:10298000EFF31080012383F3108823681D689543BB
:102990001D6080F31088022020672046FFF786FE26
:1029A000F8BDCE0208D5560206D5012000051862F2
:1029B0002046FFF7C5FEF8BD0E060BD50127802681
:1029C000FF0506403A40164304D0A16F002900D00D
:1029D00046E7F8BD4A0614D5420612D52046EFF365
:1029E0001081012282F310881A684024A2431A60E1
:1029F00081F310882021A9600021816700F05BF934
:102A0000F8BD0A0205D5420003D52046FFF797FE20
:102A1000F8BDC901FCD50028FADA2046FFF747FEC9
:102A2000F8BD00000F0800000100001020010004A4
:102A3000F939000870B5040005D025468035A8682E
:102A4000002802D006E0012070BD00202871204639
:102A500000F026F82420A860206801684908490091
:102A60000160204601F044FA0128EDD0A06A002858
:102A700002D0204600F028FF206841680922D202D7
:102A800091434160206881682A22914381602068D7
:102A90000168012211430160204600F07BFF70BDF8
:102AA00030B591B0044614210AA8FDF770FB282127
:102AB0006846FDF76CFB1A49206888422DD1012534
:102AC0000024684600950194FEF7C2FE002801D05C
:102AD000FEF76EF813480268012189030A43026079
:102AE000006808400F900F484038426B02210A43AB
:102AF0004263406B0D9408400F90C0200AAA0E94C8
:102B000023C20AA90848FEF75DFD002211461B20DA
:102B1000FEF774FE1B20FEF765FE11B030BD00000D
:102B200000380140401002400004005070B58C2372
:102B30001B58202B01D0022070BD00290BD0002A89
:102B400009D0012483682403A34206D10369002B22
:102B500003D1CB0701D0012070BD0023C3660B4B0E
:102B600004689C420ED063681B020BD5EFF3108300
:102B7000012585F3108825680126B60635432560B2
:102B800083F3108801F0BAFA70BD000000800040A5
:102B900010B5134CA188402901D30021A180006801
:102BA000104988421BD110480068C069C043000723
:102BB00004D401220A490C48FFF7B8FFA088002876
:102BC00002D12178062905D1074A2178943211547F
:102BD000401CA080012202490348FFF7A7FF10BD57
:102BE00000000020003801408C060020FFB5074699
:102BF00004468037B86883B00D46202802D00220F2
:102C000007B0F0BD002D0CD00598002809D0012098
:102C1000A1680003814206D12069002803D1E8079A
:102C200001D00120ECE7002038612120B860FEF7D8
:102C30007DFD0190264640360598B0820598F082C9
:102C40000120A1680003814202D12069002802D03E
:102C50000295002515E00020029012E0002280215C
:102C6000204601F0E1FA002818D10298002817D078
:102C70002168007888620298401C0290F08A401E09
:102C8000F082F08A019B002806980090E6D100228D
:102C90004021204601F0C8FA002808D00320AFE701
:102CA00028882168C005C00D8862AD1CE6E7202099
:102CB000B8600020A4E7704730B5BFB015461C4689
:102CC0006A46FEF732F8234600226946284600F09D
:102CD00077FD3FB030BD30B5BFB015461C466A46E3
:102CE000FEF724F823466A460021284600F068FDD6
:102CF0003FB030BD30B5BFB015461C466A46FEF742
:102D000016F823466A460021284600F059FD3FB0D8
:102D100030BD30B5BFB015461C466A46FEF708F810
:102D2000234600226946284600F04AFD3FB030BDE8
:102D300070B51446C0B00D460646002269462046CE
:102D400000F03EFD04466A462946304600F027FD65
:102D5000204640B070BD70B51446C0B00D46064662
:102D60006A460021204600F02BFD04466A462946AB
:102D7000304600F015FD204640B070BDF8B5144651
:102D80000E46054600221146204600F019FD044675
:102D90006A4601212846FDF7C8FF69460978304692
:102DA000FDF7A2FE694608700146284600F006FDC0
:102DB0002046F8BD70B514460D4606460022114661
:102DC000204600F0FDFC04462946304600F0F7FCA2
:102DD000204670BDFEE7F8B507461C4615460E4670
:102DE0002A2000F059FA38461A3000F04AFA2846EC
:102DF0001A3000F046FA2B2000F04EFA701C00F05A
:102E000040FA601C00F03DFA2C2000F045FAF8BDB5
:102E100010B514460B460246FFF7DDFF204600F0D2
:102E200030FA10BDFFB581B01F4616460C465B1E3A
:102E3000521E0198FFF7CFFF08E0019D03E00A98BA
:102E400000F01FFA6D1CB542F9D3641CBC42F4D3E8
:102E500005B0F0BD38B5FF24052501342D0700224B
:102E600021462846FEF75CFC6420FEF799FB012210
:102E700021462846FEF754FC6420FEF791FB6420AF
:102E8000FEF78EFB112000F007FA7820FEF788FB92
:102E9000B12000F001FA052000F012FA3C2000F009
:102EA0000FFA3C2000F00CFAB22000F0F5F90520F2
:102EB00000F006FA3C2000F003FA3C2000F000FA93
:102EC000B32000F0E9F9052000F0FAF93C2000F009
:102ED000F7F93C2000F0F4F9052000F0F1F93C206E
:102EE00000F0EEF93C2000F0EBF9B42000F0D4F94A
:102EF000032000F0E5F9C02000F0CEF9AB2000F08F
:102F0000DFF90B2000F0DCF9042000F0D9F9C12032
:102F100000F0C2F9C52000F0D3F9C22000F0BCF9DE
:102F20000D2000F0CDF9002000F0CAF9C32000F018
:102F3000B3F98D2000F0C4F96A2000F0C1F9C42073
:102F400000F0AAF98D2000F0BBF9EE2000F0B8F9EE
:102F5000C52000F0A1F90F2000F0B2F9E02000F048
:102F60009BF9072000F0ACF90E2000F0A9F9082029
:102F700000F0A6F9072000F0A3F9102000F0A0F956
:102F8000072000F09DF9022000F09AF9072000F0D8
:102F900097F9092000F094F90F2000F091F925200D
:102FA00000F08EF9362000F08BF9002000F088F94F
:102FB000082000F085F9042000F082F9102000F0CC
:102FC0007FF9E12000F068F90A2000F079F90D207E
:102FD00000F076F9082000F073F9072000F070F98E
:102FE0000F2000F06DF9072000F06AF9022000F0D0
:102FF00067F9072000F064F9092000F061F90F205B
:1030000000F05EF9252000F05BF9352000F058F95A
:10301000002000F055F9092000F052F9042000F0DA
:103020004FF9102000F04CF9FC2000F035F9802019
:1030300000F046F93A2000F02FF9052000F040F9A1
:10304000362000F029F9C82000F03AF9212000F0DC
:1030500023F9292000F020F92A2000F01DF9002092
:1030600000F02EF91A2000F02BF9002000F028F9CA
:10307000692000F025F92B2000F00EF9002000F067
:103080001FF9012000F01CF9002000F019F9A02020
:1030900000F016F92C2000F0FFF80020A0235022A9
:1030A00001460090FFF7BEFE01F0AAFA38BD00000D
:1030B000FFB5044685B0002000900F9801944708A2
:1030C000F808790700D0012140180F99203A4843A9
:1030D0000390D0B207900698E219431801462046A3
:1030E000521E5B1EFFF777FE002645E00F98102862
:1030F00021D0182823D0202841D1079822498001C7
:103100004018805D00250290109800281CD00120F6
:103110000299A840084204D02046089A0699FFF771
:1031200077FE0198641C201AB84220D10698019CB1
:10313000401C06901FE0079814490001E0E707983B
:10314000302148431249DBE701200299A840084298
:1031500001D0089800E00E9800F093F800983946E6
:10316000401CC0B20090FCF7C5FF002909D06D1CBF
:10317000EDB2082DC8D3761C03988642B6D309B0A9
:10318000F0BD00200090F6E7BC59000818000020B0
:10319000EC470008FFB517460B46024681B00F33D7
:1031A0000F32FFF718FE002501260024785D314616
:1031B000A140084201D0049800E00A9800F061F8AC
:1031C000641CE4B2082CF1D36D1CEDB2202DECD3BD
:1031D00005B0F0BDFFB585B00026109F1D467808EC
:1031E0003446039031E0281B401EC1B20A2001F092
:1031F000A5FA01460798FCF77DFF0A21FCF77AFF44
:10320000002E05D1681E844202DA00290DD0012665
:1032100000200F9A303100920290CAB203980599AB
:103220006043019740180E9B0AE000200F9902901E
:10323000009103980599604340180E9B0197202246
:103240000699FFF735FF641CE4B2AC42CBD309B05A
:10325000F0BDFFB583B00D9F144605467E080BE018
:103260000C990E980197009102902846069B0499AC
:10327000FFF71EFF7519641C2278002AF0D107B0F1
:10328000F0BD10B504460004000E00F019F8E0B2DD
:1032900000F016F810BD000070B5084C054600227D
:1032A00040212046FEF73CFA284600F009F80122AA
:1032B00040212046FEF734FA70BD0000000800509F
:1032C000F8B501260024F602052705463F0700222F
:1032D00031463846FEF724FA280601D5012200E0DF
:1032E0000022012109033846FEF71AFA012231466D
:1032F0003846FEF715FA6806641C050EE4B2082C81
:10330000E5D3F8BD8068C007C00F704780684007EC
:10331000C00F7047C0680005800F01D000207047C3
:1033200001207047026807239B059A430A43026005
:10333000704710B543690424214007248C40A343FF
:103340008A401343436110BD70B5134C90B0A288FE
:10335000082A1ED306236946104800F0F3F81049E6
:10336000884216D005460020A0800E4C6E460122F1
:1033700010212046FEF7D4F908487D23DB002A46B9
:1033800031469438FFF732FC002210212046FEF728
:10339000C7F910B070BD0000000000202007002019
:1033A000FFFF0000000400503EB500241A480094BE
:1033B00001941849029401608460C460042204618D
:1033C0000905426141600476447684760125014610
:1033D0002031C5610C70446284620C7342630463E3
:1033E00082630C77C464FDF7BBFD002801D072B680
:1033F000FEE701946946084800950294FDF79AFC9F
:10340000002801D072B6FEE7012204490248FDF708
:1034100001FF3EBD002401402806002002000020DC
:10342000F0B587B014216846FCF7B1FE2248416B25
:10343000012529434163416B29400591426B0421D9
:103440000A434263426B0A400592426B02210A43DF
:103450004263406B194C0840052636070590002250
:1034600021463046FEF75CF9154F002240213846D0
:10347000FEF756F9002230211248FEF751F9009468
:10348000002401950294694630460394FEF79AF8A9
:103490004020009002946946019503943846FEF757
:1034A00091F83020009002946946019503940548F4
:1034B000FEF788F807B0F0BD0010024010190000B8
:1034C000000800500004005010B51B481949016065
:1034D0004B21C901416000218160C16001618161AE
:1034E000C16101620C22416242618162FFF7A2FA6E
:1034F000002801D072B6FEE700210F48FFF7FCF864
:10350000002801D072B6FEE700210B48FFF7D0F883
:10351000002801D072B6FEE70748FFF7A9F8002897
:1035200001D072B6FEE7012204490348FFF7FEFA14
:1035300010BD0000003801408C0600200000002073
:10354000FEE70000F8B50446007817460E4698429C
:1035500005D165782846FDF77BFA002801D00020C8
:10356000F8BD08200F2D01D0102D05D1A07909300C
:10357000874201D20F48F8BDC1B22046FDF773FA69
:103580000028F8D0A078E17800024018217962790B
:103590000902891880B289B2082D01D9093D00E0DD
:1035A0006D1E2A06044B920D9D5833462246A847AD
:1035B000F8BD0000FFFF0000080600207047F8B5C6
:1035C0000F460B4615460092032104460022C9020D
:1035D00000F01CF82026002812D13B460022802152
:1035E0002046009500F07EF8002809D103213B46D3
:1035F000002249022046009500F008F8002803D078
:10360000206E304320660320F8BD0000FFB585B072
:103610000E460446002069460E9D17460871FEF7C7
:1036200085F8411B0898451AFEF780F8039020683A
:1036300023210C3002902A4800684843000D68435B
:1036400046E003204002864206D1002F04D10298B2
:1036500001786846017100790898401C39D0FEF75E
:1036600065F80399401AA84205D2002D03D00098AE
:1036700000282BD02BE020684168E0229143416074
:103680006068C11FFD390CD10121A068C9038842BF
:1036900002D04911884204D1206801684022914338
:1036A00001600120A16A4003814207D121680A68B4
:1036B00082430A6021680A6802430A60012040349C
:1036C000607700202077032009B0F0BD0025401E60
:1036D0000090206880683040B842B2D10020F3E703
:1036E00014000020FFB581B01E4604460A9DFEF777
:1036F0001DF8401B351AFEF719F8074626480068E2
:103700004001000D684339E0701C38D0FEF70EF818
:10371000C01BA84205D2002D03D0009800282BD052
:103720002BE020684168E022914341606068C11F3E
:10373000FD390CD10121A068C903884202D049118A
:10374000884204D120680168402291430160012031
:10375000A16A4003814207D121680A6882430A6056
:1037600021680A6802430A60012040346077002023
:103770002077032005B0F0BD0025401E0090206892
:1037800081680298884305D0002103988142BBD10B
:103790000020EFE70121F8E7140000207047704790
:1037A0007D210901884206D1034811888180518812
:1037B00001819188418070476C08002070477047F4
:1037C00030B5C1B01D4600246B46FDF70BFA01462B
:1037D00000206A4604E0135C2B55641CA4B2401C14
:1037E0008842F8DBE1B22846FDF7E4F9010A2955E1
:1037F000641CA1B26854491C88B241B030BD10B5F8
:10380000FDF79AFF10BD30B593B038216846FCF73C
:10381000BEFC002501200E950F95109540021195D4
:10382000FDF7F0FF0224E001039000944020059092
:1038300008200A9080030B90079400020C900894D3
:10384000000104950D9009956846FEF7DFF9002800
:1038500001D072B6FEE707200EA931C102210EA8E1
:103860001195FEF7CDF8002801D072B6FEE713B02F
:1038700030BD704710B50248FEF734FE10BD0000A1
:1038800020080020F8B50446416E4034002915D0C8
:1038900000688168806809014D0F0A4E400F374665
:1038A000315C083F385CC000FCF724FC6085785D23
:1038B000715DC000FCF71EFC2085F8BD012060850D
:1038C000FAE700008247000810B5018DC90707D04C
:1038D00001684A6801235B049A43C36A1A434A6039
:1038E000018D890707D501684A6801231B049A43A3
:1038F000036B1A434A60018D490707D501684A687E
:1039000001239B049A43436B1A434A60018D0907C4
:1039100007D501684A680123DB039A43836B1A4386
:103920004A60018DC90607D50268916801231B030F
:103930009943C36B19439160018D890607D50168CE
:103940008A6801235B039A43036C1A438A60018DE2
:10395000490612D503685A6801210905446C8A4357
:1039600022435A60426C8A4207D10268516803239D
:103970005B059943836C19435160018D090607D596
:1039800001684A680123DB04C06C9A4302434A6021
:1039900010BD0000FEB506460025803604463561A0
:1039A000FDF7C4FE019020680068124F000709D59A
:1039B00001210097002249052046019B00F034FCBC
:1039C00000280DD12068006840070BD50121009721
:1039D000002289052046019B00F026FC002801D02A
:1039E0000320FEBD2020B060F060E56625673571DC
:1039F0000020FEBDFFFFFF0110B5806A00220146D6
:103A00004031CA83CA82FEF79CFE10BD10B5EFF3A9
:103A10001081012282F3108802681368FF24213488
:103A2000A343136081F31088EFF31081012282F326
:103A30001088026893680D4C2340936081F31088CE
:103A4000C16E01290BD1EFF31081012282F310889E
:103A5000026813681024A343136081F310882022A6
:103A60008C210A500021C166416710BDFEFFFFEFA7
:103A700070B501464031034680330C8CDD68026826
:103A8000222D04D0906908210843906170BD526ACC
:103A9000856D22402A80826D921C8265CA8B521EDF
:103AA000CA83CA8B002AF1D1EFF31082012484F378
:103AB000108804682568FF262136B543256082F307
:103AC0001088EFF31082012484F310880468A5683D
:103AD0006D086D00A56082F310882022DA60002254
:103AE00042670267C36E012B02D0FFF751F870BD29
:103AF000C266EFF31082012383F3108804682568FF
:103B000010239D43256082F310880268D469E44342
:103B1000E40600D41362898BFEF7C8FD70BD000077
:103B2000F0B505460446403589B0288C02902068DF
:103B3000C66901680691816804912146803100912F
:103B4000C968222905D0816908221143816109B021
:103B5000F0BD2F8D69E02068406A029AA16D104087
:103B60000880A06D801CA065E88B401EE88320685B
:103B7000C669710731D0F10709D00699C90506D584
:103B80000121016200980069084300990861B007AB
:103B90000BD50498C00708D021680220086200985D
:103BA0000069042108430099086170070BD5049847
:103BB000C00708D02168042008620098006902212B
:103BC00008430099086100980069002805D0204644
:103BD000FEF7B7FD009900200861E88B002824D18A
:103BE000EFF31080012181F3108821680A68FF2318
:103BF00001339A430A6080F31088EFF310800121AB
:103C000081F3108821688A68274B1A408A6080F304
:103C1000108800992020C860002060672067E16E4E
:103C2000012928D02046FEF7B3FF002F01D0B006AF
:103C300091D4E88B00288AD0298D814287D9EFF36F
:103C40001080012181F3108821688A6801231B07F5
:103C50009A438A6080F3108814486067EFF31080FD
:103C6000012181F3108821680A6820231A430A6021
:103C700080F310886BE7E066EFF31080012181F399
:103C800010882268136810218B43136080F310881A
:103C90002068C269D243D20600D40162A98B2046B3
:103CA000FEF704FDC1E70000FEFFFFEF713A0008D8
:103CB00070B501464031034680330C8CDD680268E4
:103CC000222D04D0906908210843906170BD526A8A
:103CD0002240846D2270826D521C8265CA8B521EF6
:103CE000CA83CA8B002AF1D1EFF31082012484F336
:103CF000108804682568FF262136B543256082F3C5
:103D00001088EFF31082012484F310880468A568FA
:103D10006D086D00A56082F310882022DA60002211
:103D200042670267C36E012B02D0FEF731FF70BD00
:103D3000C266EFF31082012383F3108804682568BC
:103D400010239D43256082F310880268D469E44300
:103D5000E40600D41362898BFEF7A8FC70BD000056
:103D6000F0B505460446403589B0288C019021689D
:103D7000CE690868069088680490204680300290DA
:103D8000C068222805D0886908221043886109B0DC
:103D9000F0BD2F8D69E02068406A01990840A16D4F
:103DA0000870A06D401CA065E88B401EE883206869
:103DB000C669710731D0F10709D00699C90506D542
:103DC0000121016202980069084302990861B00765
:103DD0000BD50498C00708D0216802200862029819
:103DE0000069042108430299086170070BD5049803
:103DF000C00708D0216804200862029800690221E7
:103E000008430299086102980069002805D02046FD
:103E1000FEF797FC029900200861E88B002824D166
:103E2000EFF31080012181F3108821680A68FF23D5
:103E300001339A430A6080F31088EFF31080012168
:103E400081F3108821688A68274B1A408A6080F3C2
:103E5000108802992020C860002060672067E16E0A
:103E6000012928D02046FEF793FE002F01D0B0068E
:103E700091D4E88B00288AD0298D814287D9EFF32D
:103E80001080012181F3108821688A6801231B07B3
:103E90009A438A6080F3108814486067EFF31080BB
:103EA000012181F3108821680A6820231A430A60DF
:103EB00080F310886BE7E066EFF31080012181F357
:103EC00010882268136810218B43136080F31088D8
:103ED0002068C269D243D20600D40162A98B204671
:103EE000FEF7E4FBC1E70000FEFFFFEFB13C000876
:103EF000F8B50446016880682369E5691843636979
:103F000000262B431843734A0B68734D2B40034321
:103F10000B602068416803231B039943E36819433E
:103F200041602168A069914201D0236A18438B68DF
:103F30006A4D2B4003438B602068C16A636A09099C
:103F400009011943C1626649236866488B420AD158
:103F500040698007800F09D001282CD0022828D082
:103F6000032816D113E060498B4201D1002111E0F2
:103F700093420ED141690320800201400AD0012002
:103F80008002091A17D0091A13D0814201D10821E1
:103F900000E010210120554D554FC00393423DD103
:103FA00000290AD0022911D0042909D0082934D1C6
:103FB0000BE00221EEE70421ECE7FDF7CDFD01E087
:103FC000FDF7DEFD050001D179E00546606A40009D
:103FD000395A28460091FCF78DF8676879007918FE
:103FE000814267D83903814264D3002328461946A9
:103FF000009AFCF795F8020E0902030278081143B3
:104000001818002251413A460023FCF789F8032191
:104010000902384A411A91424FD94BE0E269824283
:1040200027D1002906D0022907D0042907D0082962
:1040300040D108E0FDF790FD03E0284603E0FDF7DE
:104040009FFD00283BD0616A4900795AFCF752F87D
:10405000616840004A088018FCF74CF80146264A7F
:104060001039914226D8511C01400007400F0843E7
:1040700023E0002906D0022907D0042907D0082907
:1040800018D108E0FDF768FD03E0284603E0FDF7DE
:1040900077FD002813D0616A4900795AFCF72AF8A5
:1040A00061684A088018FCF725F80146124A103961
:1040B000914201D9012602E080B22168C860204601
:1040C000012140304185018500206067A0673046AE
:1040D000F8BD000000800040F369FFCFFFF4FF113E
:1040E0000038014040100240004400400024F40029
:1040F00062470008FFFC0F00EFFF0000F0B581658C
:10410000014640318A83CA830025456701248368BC
:104110002403FF26A34204D10369002B13D13D4B96
:104120000AE07F27002B09D001263607B3420CD1C5
:104130000369002B05D03F230B8407E00369002BA4
:1041400001D00F8402E00E8400E00D84034680332A
:104150001D612225DD60EFF31083012585F31088B2
:104160000568AE6801273E43AE6083F31088436E56
:104170007D07AB4229D1098D914226D88168A142A1
:1041800002D1016900291DD0234941670169002935
:104190000CD0EFF31081012282F3108802681368BB
:1041A000FF2401342343136081F31088EFF310815F
:1041B000012282F310880068826801231B071A43DA
:1041C000826023E015494167F0E78168A14202D18E
:1041D000016900290ED012494167016900290BD0FD
:1041E000EFF31081012282F3108800680268FF2338
:1041F000213309E00B494167EFF31081012282F37B
:1042000010880068026820231A43026081F3108836
:104210000020F0BDFF010000613D0008213B0008C7
:10422000B13C0008713A0008FFB581B00546174659
:10423000044680350A9E54E0701C52D0FDF776FA91
:104240000499401AB0422FD8002E2DD02068016862
:10425000490746D5C069C043000542D40120216802
:10426000C0020862EFF31080012181F310882168F9
:104270000B68FF22A13293430B6080F31088EFF3A9
:104280001080012181F3108821688A685208520049
:104290008A6080F310882020A860E86028610020F0
:1042A0002871032005B0F0BDEFF31080012181F3E8
:1042B000108821680A68FF23A1339A430A6080F3BB
:1042C0001088EFF31080012181F3108821688A683B
:1042D000520852008A6080F310882020A860E860AD
:1042E000DDE72068C1690298884304D00020B84205
:1042F000A2D00020D6E70120F9E7000010B502485F
:10430000FEF720FA10BD00008C0600202021020CD0
:1043100001D010211046020A01D0104608390209C6
:1043200001D01046091F820801D01046891E42089C
:1043300001D0881E7047081A704700008307FF22CB
:10434000DB0E9A408907090E9940002808DB830894
:1043500009489B001B181868904308431860704771
:104360000007000F0838830804489B001B18D86911
:1043700090430843D861704700E400E000ED00E09E
:1043800002E008C8121F08C1002AFAD1704770471E
:10439000002001E001C1121F002AFBD1704700007C
:1043A00010B50E480E4940884018FCF79BF80D4A9E
:1043B0000D4BFCF727F800220C4BFBF76FFFFCF7C7
:1043C000B9F844B2002C00DA002404490122891C07
:1043D0000748FCF71FFFE0B210BD000000000020FE
:1043E0002DF5FFFF986E1283C0CAB13F000039401F
:1043F00028060020F7B584B00646642A00D364225C
:104400000A211046FBF776FE00240546052823D82E
:1044100000270DE0102001900094F8003F23029443
:1044200080195B017C220599FEF742FE7F1CFFB2DA
:10443000AF42EFD310270BE00094E8008019454B02
:104440007C22019702940599FEF732FE6D1CEDB2B5
:104450000A2DF1D307B0F0BDAA1F022A32D80027D7
:10446000102001900094F8003F23029480195B0112
:104470007C220599FEF71CFE7F1CFFB2052FEFD3AF
:1044800005270CE0102001900094F8000294801998
:10449000314B7C220599FEF70BFE7F1CFFB2AF4229
:1044A000F0D310270BE00094E8008019294B7C2200
:1044B000019702940599FEF7FBFD6D1CEDB20A2DE4
:1044C000F1D3C7E72A46093A012AC3D800271020AA
:1044D00001900094F8003F23029480195B017C2234
:1044E0000599FEF7E5FD7F1CFFB2052FEFD30527E9
:1044F000102001900094F80002948019164B7C2241
:104500000599FEF7D5FD7F1CFFB2082FF0D30827D1
:104510000DE0102001900094F8001F2302948019F0
:10452000DB027C220599FEF7C3FD7F1CFFB2AF4280
:10453000EFD310270BE00094E8008019054B7C2294
:10454000019702940599FEF7B3FD6D1CEDB20A2D9B
:10455000F1D37FE718C60000E0FF0000FEB5044677
:10456000202000253F267601029000960195A28822
:10457000032329460A20FEF72DFEA0886421484324
:104580001E49FBF7B7FD02461027032324213020E4
:10459000029700960195FEF71DFEA088642148430E
:1045A0001649FBF7A7FDC2B236210020FFF722FF14
:1045B0000297009601956288042352211220FEF78B
:1045C00009FE029700960195228904236621122094
:1045D000FEF700FE029700960195E28803237A21F8
:1045E0001A20FEF7F7FD0297009601952278032323
:1045F0008E211A20FEF7EEFDFEBD0000EE02000047
:10460000FEB500241820304E0190009433467722E6
:10461000052102944420FEF74BFD102500943346FB
:1046200030222421002001950294FEF741FD0094E0
:10463000334625222421482001950294FEF738FDB7
:10464000214F224A1F3F3B46522100200094FEF793
:10465000A1FD009433461EA25221382001950294F8
:10466000FEF7F7FD194A3B462032662100200094F0
:10467000FEF790FD0094334616A26621382001957E
:104680000294FEF7E6FD114A3B4640327A210020B3
:104690000094FEF77FFD0D4A3346203A7A213820F8
:1046A0000094FEF777FD094A3B4660328E210020D8
:1046B0000094FEF76FFD054A3346203A8E213820DC
:1046C0000094FEF767FDFEBDFFFF00005C60000880
:1046D00072706D006D41000008B5FDF735F8FFF709
:1046E00092F8FEF79DFE1348816B0122114381630E
:1046F000806B02211040009000220920FDF77EF817
:104700000920FDF76FF8FEF74FFEFEF7DDFEFEF71E
:10471000A1FBFCF705F9084CFEF716FEFCF7ECF8D8
:10472000FBF7F4FEE080FFF73BFE20700248FFF746
:1047300015FFF1E7001002406C080020024601203E
:1047400000E050430B46491EC9B2002BF9D1704717
:10475000002101E0414040080028FBD1C807C00FFC
:104760007047010002000400060008000A000C0067
:10477000100020004000800000010101010307013A
:10478000000008040204080101010000000000000C
:104790000000000000000000000000000000000019
:1047A0000000000000000000000000000100000008
:1047B00002000000030000000400000006000000EA
:1047C00007000000080000000900000000000000D1
:1047D00000000000000000000000000001000000D8
:1047E00002000000030000000400000000000000C0
:1047F00000000000000000000000000000000000B9
:1048000000000000000000000000000000000000A8
:104810000000000000000000000000000000000098
:104820000000000060006000600060006000600048
:104830006000400020002000200000000000000078
:104840006000600060000000000000000000000048
:1048500060066006300398018800440000000000F4
:104860000000000000000000000000000000000048
:104870000000000000000000000000000000000038
:10488000000000001002100210021002FE07FE07D6
:1048900008020801080108010801FE07FE070401DB
:1048A00004010401040100000000000000000000F9
:1048B000000040004000F00158034C03CC034C00C2
:1048C00058007000E000C001C00140034C035C03CD
:1048D0004C034801F00040004000000000000000D0
:1048E000000000000E010A019100910091005100AA
:1048F00051003A00AE03A00250045004480448049A
:10490000480484028403000000000000000000004E
:104910000000000038006C006C006C006C006C0043
:104920002C0098071C011A01330133016301E300D5
:10493000C308C6093C07000000000000000000009A
:104940000C001C0010001000080004000000000013
:104950000000000000000000000000000000000057
:104960000000000000000000000000000000000047
:104970000004000200018000800040004000200090
:1049800020002000200020002000200040004000E7
:104990008000800000010002000400000000000010
:1049A0000200040008001000100020002000400059
:1049B0004000400040004000400040002000200037
:1049C00010001000080004000200000000000000B9
:1049D00000000000000000004000C0004000460C45
:1049E0004E0FD001F0015E0F460C40004000400029
:1049F00000000000000000000000000000000000B7
:104A000000000000000000000000400040004000E6
:104A100040004000FE0F40004000400040004000C9
:104A20000000000000000000000000000000000086
:104A30000000000000000000000000000000000076
:104A40000000000000000000000000000000000066
:104A50000C001C0010001000080004000000000002
:104A60000000000000000000000000000000000046
:104A700000000000FE070000000000000000000031
:104A80000000000000000000000000000000000026
:104A90000000000000000000000000000000000016
:104AA0000000000000000000000000000000000006
:104AB0001C001C001C0000000000000000000000A2
:104AC00000040006000200030001000180008000D5
:104AD000400040006000200020001000100008008E
:104AE00008000C00040006000200000000000000A6
:104AF000000000000000F00098010C030C03060603
:104B000006060606060606060606060606060C0342
:104B10000C039801F00000000000000000000000FD
:104B200000000000000040007C00600060006000A9
:104B30006000600060006000600060006000600075
:104B400060006000FC0300000000000000000000A6
:104B5000000000000000F8008401020306030603C1
:104B6000000300018001C000600020001000080266
:104B700004020602FE030000000000000000000026
:104B80000000000000007800C60086018601800158
:104B90008001C000700080010001000300030603D3
:104BA00006038601F800000000000000000000007D
:104BB00000000000000080018001C001A001A001F0
:104BC00090018801880184018201FE0F800180012B
:104BD00080018001E00700000000000000000000EC
:104BE000000000000000FC030400040004000400B6
:104BF0000400F4008C010403000300030603060311
:104C000082018401F80000000000000000000000A4
:104C1000000000000000E00118030C030C00040079
:104C20000600E60116030E0606060606060604063C
:104C30000C021803F000000000000000000000005B
:104C4000000000000000F8070C0604020401000147
:104C500000018000800040004000400060006000D3
:104C60006000600060000000000000000000000024
:104C7000000000000000F8010C0306060606060608
:104C80000C021C03F000C8010C030606060606060B
:104C900006060C03F0010000000000000000000008
:104CA000000000000000F0000C010C0306020606E4
:104CB0000606060606078C067806000600030003B3
:104CC0000C018C01780000000000000000000000D2
:104CD00000000000000000000000000000000000D4
:104CE000E000E000E0000000000000000000000024
:104CF000E000E000E0000000000000000000000014
:104D000000000000000000000000000000000000A3
:104D100060006000000000000000000000000000D3
:104D20000000600060004000200020000000000043
:104D3000000000000004000200018000400020008C
:104D4000100008000400080010002000400080004F
:104D5000000100020004000000000000000000004C
:104D60000000000000000000000000000000000043
:104D7000FE07000000000000FE0700000000000029
:104D80000000000000000000000000000000000023
:104D90000000000004000800100020004000800017
:104DA0000001000200040002000180004000200019
:104DB00010000800040000000000000000000000D7
:104DC000000000000000E0031806040C040C0C0CAA
:104DD0000C0C000780014000400040000000000073
:104DE000E000E000E0000000000000000000000023
:104DF00000000000E00018030C02CC056405660505
:104E0000A605B604B604B604B604B602E4010C0462
:104E10000C021803F0000000000000000000000079
:104E2000000000000000600060005000D000900012
:104E30009000880088010801F801040304030402BB
:104E4000020202060F0F0000000000000000000038
:104E5000000000000000FE008C030C030C030C0398
:104E60000C038C01FC000C030C020C060C060C0657
:104E70000C060C03FE010000000000000000000012
:104E8000000000000000E00318030C060C040404FA
:104E900006000600060006000600060006040C04D4
:104EA0000C021803F00000000000000000000000E9
:104EB0000000000000007F008C010C030C030C06B6
:104EC0000C060C060C060C060C060C060C060C0355
:104ED0000C038C017F0000000000000000000000B7
:104EE000000000000000FF0306030604060406009D
:104EF00086008600FE008600860086000600060406
:104F000006040602FF03000000000000000000008D
:104F1000000000000000FF0306030604060406006C
:104F200086008600FE0086008600860006000600D9
:104F3000060006001F000000000000000000000046
:104F4000000000000000F00018010C020C02040236
:104F50000600060006000600C60F060306030C0343
:104F60000C031803F0000000000000000000000027
:104F70000000000000000F0F0606060606060606E3
:104F800006060606FE0706060606060606060606C8
:104F9000060606060F0F00000000000000000000DB
:104FA000000000000000FC03600060006000600082
:104FB00060006000600060006000600060006000F1
:104FC00060006000FC030000000000000000000022
:104FD000000000000000F807C000C000C000C000D2
:104FE000C000C000C000C000C000C000C000C000C1
:104FF000C000C000C000C60066003C000000000009
:10500000000000000000CF038601C6004600260015
:10501000160036002E006E004600C600860086018F
:10502000060106038F0700000000000000000000DA
:105030000000000000001F00060006000600060039
:10504000060006000600060006000600060006042C
:1050500006040602FF03000000000000000000003C
:105060000000000000000707860386038E038E03FE
:105070004E034E034A035A035A033A0332033203E0
:105080003203120387070000000000000000000048
:105090000000000000008E0F0C021C021C023402F3
:1050A0003402640264024402C4028402840384035E
:1050B000040304031F0200000000000000000000C1
:1050C000000000000000F00098010C030C0206062E
:1050D00006060606060606060606060606060C026E
:1050E0000C039801F0000000000000000000000028
:1050F000000000000000FF00060306060606060684
:10510000060606068603FE000600060006000600E8
:10511000060006001F000000000000000000000064
:10512000000000000000F00098010C030C020606CD
:1051300006060606060606060606060676064C025D
:10514000CC039801F000800700030000000000007D
:10515000000000000000FF01060306060606060622
:1051600006060603FE004600C6008600860106030A
:10517000060306060F0E00000000000000000000FD
:10518000000000000000F8020C0306020602060000
:105190000E003C00F800E003800300070206020650
:1051A00006060C03F00100000000000000000000F3
:1051B000000000000000FE07620461086108600052
:1051C00060006000600060006000600060006000DF
:1051D00060006000F8010000000000000000000016
:1051E0000000000000001E070C020C020C020C0262
:1051F0000C020C020C020C020C020C020C020C023F
:105200000C021801F0000000000000000000000087
:105210000000000000000F070602040104010C0159
:105220000C01880088009800980050005000700021
:1052300030002000200000000000000000000000FE
:10524000000000000000F70E620442044604460419
:1052500064026402E402E4029C029C019801980149
:1052600088018800880000000000000000000000A5
:105270000000000000009E070C01080118019000CA
:10528000B0006000200060006000D0009000880145
:10529000080104038E070000000000000000000069
:1052A0000000000000000F0F060404020C020801B9
:1052B0001801B800B000700060006000600060007D
:1052C00060006000F8010000000000000000000025
:1052D000000000000000FC070C0206030201800130
:1052E000800040004000200020001000180008044A
:1052F0000C040402FE030000000000000000000097
:10530000E0032000200020002000200020002000DA
:10531000200020002000200020002000200020008D
:105320002000200020002000E0030000000000001A
:105330000000000004000400080008001000100035
:1053400010002000200040004000C00080008000CD
:105350000001000100020002000200040000000041
:105360007C00400040004000400040004000400001
:10537000400040004000400040004000400040002D
:1053800040004000400040007C0000000000600041
:105390009000080100000000000000000000000074
:1053A00000000000000000000000000000000000FD
:1053B00000000000000000000000000000000000ED
:1053C00000000000000000000000000000000000DD
:1053D00000000000000000000000000000000000CD
:1053E00000000000000000000000FF0F00000000AF
:1053F0001800600000000000000000000000000035
:10540000000000000000000000000000000000009C
:10541000000000000000000000000000000000008C
:10542000000000000000000000000000000000007C
:10543000F0010C030C030003E0031C030E0306033E
:1054400006038E0B7C0E0000000000000000000030
:105450000000000008000E000C000C000C000C0006
:10546000CC013C031C060C060C060C060C060C06B4
:105470000C021C03E401000000000000000000001A
:10548000000000000000000000000000000000001C
:10549000F0008C018C018601060006000600060261
:1054A0000C020C01F00000000000000000000000F1
:1054B000000000000002C00300030003000300031B
:1054C00078038C030C030603060306030603060396
:1054D00004038C07780100000000000000000000B9
:1054E00000000000000000000000000000000000BC
:1054F000E001180308020C060C06FC070C000C0067
:1055000018041802E0010000000000000000000084
:10551000000000000000C0036006300630003000CC
:10552000FE0130003000300030003000300030002C
:1055300030003000FC01000000000000000000000E
:10554000000000000000000000000000000000005B
:10555000F007D8068C018C018C019801F8000C0032
:10556000FC00CC03060306038E03F80000000000D5
:105570000000000008000E000C000C000C000C00E5
:10558000EC011C030C030C030C030C030C030C03B5
:105590000C030C039E070000000000000000000048
:1055A00000000000000060006000000000004000FB
:1055B0007C006000600060006000600060006000CF
:1055C00060006000FC03000000000000000000001C
:1055D000000000000000C001C00100000000000148
:1055E000F001800180018001800180018001800143
:1055F0008001800180018001CC007C00000000005F
:105600000000000008000E000C000C000C000C0054
:105610008C038C008C004C006C005C008C008C01B6
:105620000C010C039E0700000000000000000000B9
:105630000000000040007C0060006000600060002E
:10564000600060006000600060006000600060005A
:1056500060006000FC03000000000000000000008B
:10566000000000000000000000000000000000003A
:105670003707EE0666066606660666066606660670
:1056800066066606FF0F0000000000000000000034
:10569000000000000000000000000000000000000A
:1056A000EE011C030C030C030C030C030C030C0392
:1056B0000C030C039E070000000000000000000027
:1056C00000000000000000000000000000000000DA
:1056D000F00098010C0306060606060606060606F6
:1056E0000C030C03F00000000000000000000000AC
:1056F00000000000000000000000000000000000AA
:10570000EE011C030C060C060C060C060C060C061F
:105710000C031C03EC010C000C003E000000000018
:105720000000000000000000000000000000000079
:1057300078028C030C030603060306030603060324
:1057400004038C03780300030003C007000000007B
:105750000000000000000000000000000000000049
:105760009F03580638061800180018001800180083
:1057700018001800FF0000000000000000000000FA
:105780000000000000000000000000000000000019
:10579000F0031C030C020C023800F000C0030403E9
:1057A00004038C03FC010000000000000000000066
:1057B0000000000000000000200020003000300049
:1057C000FE0130003000300030003000300030008A
:1057D00030023002E0010000000000000000000084
:1057E00000000000000000000000000000000802AF
:1057F0008E030C030C030C030C030C030C030C03AF
:105800000C039C077801000000000000000000006D
:105810000000000000000000000000000000000088
:105820001E070C020801080118019000B000B0002A
:105830006000600020000000000000000000000088
:105840000000000000000000000000000000000058
:10585000F70E6204460464026402EC029C019801A3
:1058600098019801080000000000000000000000FE
:105870000000000000000000000000000000000028
:10588000BC0718011001B00060006000E00090004B
:10589000080108039E07000000000000000000004F
:1058A00000000000000000000000000000000000F8
:1058B0009E0708010801080190009000B0006000F8
:1058C000600060002000200024001C000000000098
:1058D00000000000000000000000000000000000C8
:1058E000FC018401C4004400600020003000180264
:1058F00008020C03FC010000000000000000000092
:105900000003800080008000800080008000800014
:105910008000400020004000800080008000800067
:1059200080008000800080000003000040004000F4
:105930004000400040004000400040004000400067
:105940004000400040004000400040004000400057
:1059500040004000400040004000400000000000C7
:105960000C001000100010001000100010001000BB
:105970001000200040002000100010001000100057
:1059800010001000100010000C00000000001C00AF
:105990002204C20480030000000000000000000098
:1059A00000000000000000000000000000000000F7
:1059B00000000000000000000000000000000000E7
:1059C00000000000000000000000000000000000D7
:1059D00000000000000000000000000000000000C7
:1059E00000000000000000000000000000000000B7
:1059F00000000000000000000000000000000000A7
:105A0000000000000000000000000300030003008D
:105A10000300000003000300000003000300000077
:105A2000030003000000000000000000030003006A
:105A30000000000000000000000000000000000066
:105A400000000000000000000000C300C300C3000D
:105A5000C3000000C300C3000000000000000000FD
:105A60000000000000000000000000000000000036
:105A70000000000000000000000000000000000026
:105A80000000000000000000000018061806DB36C9
:105A9000DB3600001806180600001806180600007D
:105AA000180618060000DB36DB360000180618065C
:105AB00000000000000000000000000000000000E6
:105AC00000000000C000C0000000D806D806C330A7
:105AD000C3300000C300C3000000D806D806000091
